{"abi":[{"type":"function","name":"addPlan","inputs":[{"name":"plan","type":"string","internalType":"string"},{"name":"price","type":"uint256","internalType":"uint256"},{"name":"duration","type":"uint256","internalType":"uint256"}],"outputs":[],"stateMutability":"nonpayable"},{"type":"function","name":"isActive","inputs":[{"name":"user","type":"address","internalType":"address"}],"outputs":[{"name":"","type":"bool","internalType":"bool"}],"stateMutability":"view"},{"type":"function","name":"logicContract","inputs":[],"outputs":[{"name":"","type":"address","internalType":"address"}],"stateMutability":"view"},{"type":"function","name":"owner","inputs":[],"outputs":[{"name":"","type":"address","internalType":"address"}],"stateMutability":"view"},{"type":"function","name":"pauseAccount","inputs":[{"name":"user","type":"address","internalType":"address"}],"outputs":[],"stateMutability":"nonpayable"},{"type":"function","name":"planDuration","inputs":[{"name":"","type":"string","internalType":"string"}],"outputs":[{"name":"","type":"uint256","internalType":"uint256"}],"stateMutability":"view"},{"type":"function","name":"planPrices","inputs":[{"name":"","type":"string","internalType":"string"}],"outputs":[{"name":"","type":"uint256","internalType":"uint256"}],"stateMutability":"view"},{"type":"function","name":"resumeAccount","inputs":[{"name":"user","type":"address","internalType":"address"}],"outputs":[],"stateMutability":"nonpayable"},{"type":"function","name":"subscribe","inputs":[{"name":"plan","type":"string","internalType":"string"}],"outputs":[],"stateMutability":"payable"},{"type":"function","name":"subscriptions","inputs":[{"name":"","type":"address","internalType":"address"}],"outputs":[{"name":"startTime","type":"uint256","internalType":"uint256"},{"name":"endTime","type":"uint256","internalType":"uint256"},{"name":"plan","type":"string","internalType":"string"},{"name":"paused","type":"bool","internalType":"bool"}],"stateMutability":"view"},{"type":"event","name":"AccountPaused","inputs":[{"name":"user","type":"address","indexed":true,"internalType":"address"}],"anonymous":false},{"type":"event","name":"AccountResumed","inputs":[{"name":"user","type":"address","indexed":true,"internalType":"address"}],"anonymous":false},{"type":"event","name":"PlanAdded","inputs":[{"name":"plan","type":"string","indexed":true,"internalType":"string"},{"name":"price","type":"uint256","indexed":false,"internalType":"uint256"},{"name":"duration","type":"uint256","indexed":false,"internalType":"uint256"}],"anonymous":false},{"type":"event","name":"Subscribed","inputs":[{"name":"user","type":"address","indexed":true,"internalType":"address"},{"name":"plan","type":"string","indexed":false,"internalType":"string"},{"name":"endTime","type":"uint256","indexed":false,"internalType":"uint256"}],"anonymous":false}],"bytecode":{"object":"0x608060405234801561000f575f80fd5b506119598061001d5f395ff3fe608060405260043610610090575f3560e01c80639f8a13d7116100585780639f8a13d714610166578063cc0e97c9146101a2578063e1c143ac146101cc578063f046395a14610208578063f66d98201461024757610090565b8063484d1ad6146100945780634b601340146100bc578063507e7888146100e4578063669469d1146101005780638da5cb5b1461013c575b5f80fd5b34801561009f575f80fd5b506100ba60048036038101906100b59190610d48565b61026f565b005b3480156100c7575f80fd5b506100e260048036038101906100dd9190610e07565b6104ab565b005b6100fe60048036038101906100f99190610e78565b6106a4565b005b34801561010b575f80fd5b5061012660048036038101906101219190610ffb565b6108ca565b6040516101339190611051565b60405180910390f35b348015610147575f80fd5b506101506108f7565b60405161015d9190611079565b60405180910390f35b348015610171575f80fd5b5061018c60048036038101906101879190610d48565b61091c565b60405161019991906110ac565b60405180910390f35b3480156101ad575f80fd5b506101b6610995565b6040516101c39190611079565b60405180910390f35b3480156101d7575f80fd5b506101f260048036038101906101ed9190610ffb565b6109b8565b6040516101ff9190611051565b60405180910390f35b348015610213575f80fd5b5061022e60048036038101906102299190610d48565b6109e5565b60405161023e949392919061113f565b60405180910390f35b348015610252575f80fd5b5061026d60048036038101906102689190610d48565b610aa3565b005b60015f9054906101000a900473ffffffffffffffffffffffffffffffffffffffff1673ffffffffffffffffffffffffffffffffffffffff163373ffffffffffffffffffffffffffffffffffffffff16146102fe576040517f08c379a00000000000000000000000000000000000000000000000000000000081526004016102f5906111d3565b60405180910390fd5b5f60025f8373ffffffffffffffffffffffffffffffffffffffff1673ffffffffffffffffffffffffffffffffffffffff1681526020019081526020015f206001015411610380576040517f08c379a00000000000000000000000000000000000000000000000000000000081526004016103779061123b565b60405180910390fd5b60025f8273ffffffffffffffffffffffffffffffffffffffff1673ffffffffffffffffffffffffffffffffffffffff1681526020019081526020015f206003015f9054906101000a900460ff161561040d576040517f08c379a0000000000000000000000000000000000000000000000000000000008152600401610404906112a3565b60405180910390fd5b600160025f8373ffffffffffffffffffffffffffffffffffffffff1673ffffffffffffffffffffffffffffffffffffffff1681526020019081526020015f206003015f6101000a81548160ff0219169083151502179055508073ffffffffffffffffffffffffffffffffffffffff167fae7f60c1b8f645c3beffeb531169cbc446874bbf247698325318879ac850c34660405160405180910390a250565b60015f9054906101000a900473ffffffffffffffffffffffffffffffffffffffff1673ffffffffffffffffffffffffffffffffffffffff163373ffffffffffffffffffffffffffffffffffffffff161461053a576040517f08c379a0000000000000000000000000000000000000000000000000000000008152600401610531906111d3565b60405180910390fd5b5f848490501161057f576040517f08c379a00000000000000000000000000000000000000000000000000000000081526004016105769061130b565b60405180910390fd5b5f82116105c1576040517f08c379a00000000000000000000000000000000000000000000000000000000081526004016105b890611373565b60405180910390fd5b5f8111610603576040517f08c379a00000000000000000000000000000000000000000000000000000000081526004016105fa906113db565b60405180910390fd5b8160038585604051610616929190611427565b908152602001604051809103902081905550806004858560405161063b929190611427565b908152602001604051809103902081905550838360405161065d929190611427565b60405180910390207f6c302e47635255da86ba61cb7dee90680396328bf52ee801cbc8eedfb58471d1838360405161069692919061143f565b60405180910390a250505050565b5f600383836040516106b7929190611427565b90815260200160405180910390205490505f600484846040516106db929190611427565b90815260200160405180910390205490505f821161072e576040517f08c379a0000000000000000000000000000000000000000000000000000000008152600401610725906114b0565b60405180910390fd5b813414610770576040517f08c379a000000000000000000000000000000000000000000000000000000000815260040161076790611518565b60405180910390fd5b5f4290505f82826107819190611563565b9050604051806080016040528083815260200182815260200187878080601f0160208091040260200160405190810160405280939291908181526020018383808284375f81840152601f19601f8201169050808301925050505050505081526020015f151581525060025f3373ffffffffffffffffffffffffffffffffffffffff1673ffffffffffffffffffffffffffffffffffffffff1681526020019081526020015f205f820151815f015560208201518160010155604082015181600201908161084d9190611790565b506060820151816003015f6101000a81548160ff0219169083151502179055509050503373ffffffffffffffffffffffffffffffffffffffff167fffa5088d5660bf54f1f4d68628cc152d5cd6569854c3a92de6b47a720a12f6088787846040516108ba9392919061188b565b60405180910390a2505050505050565b6003818051602081018201805184825260208301602085012081835280955050505050505f915090505481565b60015f9054906101000a900473ffffffffffffffffffffffffffffffffffffffff1681565b5f8060025f8473ffffffffffffffffffffffffffffffffffffffff1673ffffffffffffffffffffffffffffffffffffffff1681526020019081526020015f2090505f81600101541180156109735750806001015442105b801561098d5750806003015f9054906101000a900460ff16155b915050919050565b5f8054906101000a900473ffffffffffffffffffffffffffffffffffffffff1681565b6004818051602081018201805184825260208301602085012081835280955050505050505f915090505481565b6002602052805f5260405f205f91509050805f015490806001015490806002018054610a10906115c3565b80601f0160208091040260200160405190810160405280929190818152602001828054610a3c906115c3565b8015610a875780601f10610a5e57610100808354040283529160200191610a87565b820191905f5260205f20905b815481529060010190602001808311610a6a57829003601f168201915b505050505090806003015f9054906101000a900460ff16905084565b60015f9054906101000a900473ffffffffffffffffffffffffffffffffffffffff1673ffffffffffffffffffffffffffffffffffffffff163373ffffffffffffffffffffffffffffffffffffffff1614610b32576040517f08c379a0000000000000000000000000000000000000000000000000000000008152600401610b29906111d3565b60405180910390fd5b5f60025f8373ffffffffffffffffffffffffffffffffffffffff1673ffffffffffffffffffffffffffffffffffffffff1681526020019081526020015f206001015411610bb4576040517f08c379a0000000000000000000000000000000000000000000000000000000008152600401610bab9061123b565b60405180910390fd5b60025f8273ffffffffffffffffffffffffffffffffffffffff1673ffffffffffffffffffffffffffffffffffffffff1681526020019081526020015f206003015f9054906101000a900460ff16610c40576040517f08c379a0000000000000000000000000000000000000000000000000000000008152600401610c3790611905565b60405180910390fd5b5f60025f8373ffffffffffffffffffffffffffffffffffffffff1673ffffffffffffffffffffffffffffffffffffffff1681526020019081526020015f206003015f6101000a81548160ff0219169083151502179055508073ffffffffffffffffffffffffffffffffffffffff167f5f78c7d0c29f5ed7ab23a56c34b5938490570f3a9d12cc15d7dd7d6dbc62b93b60405160405180910390a250565b5f604051905090565b5f80fd5b5f80fd5b5f73ffffffffffffffffffffffffffffffffffffffff82169050919050565b5f610d1782610cee565b9050919050565b610d2781610d0d565b8114610d31575f80fd5b50565b5f81359050610d4281610d1e565b92915050565b5f60208284031215610d5d57610d5c610ce6565b5b5f610d6a84828501610d34565b91505092915050565b5f80fd5b5f80fd5b5f80fd5b5f8083601f840112610d9457610d93610d73565b5b8235905067ffffffffffffffff811115610db157610db0610d77565b5b602083019150836001820283011115610dcd57610dcc610d7b565b5b9250929050565b5f819050919050565b610de681610dd4565b8114610df0575f80fd5b50565b5f81359050610e0181610ddd565b92915050565b5f805f8060608587031215610e1f57610e1e610ce6565b5b5f85013567ffffffffffffffff811115610e3c57610e3b610cea565b5b610e4887828801610d7f565b94509450506020610e5b87828801610df3565b9250506040610e6c87828801610df3565b91505092959194509250565b5f8060208385031215610e8e57610e8d610ce6565b5b5f83013567ffffffffffffffff811115610eab57610eaa610cea565b5b610eb785828601610d7f565b92509250509250929050565b5f80fd5b5f601f19601f8301169050919050565b7f4e487b71000000000000000000000000000000000000000000000000000000005f52604160045260245ffd5b610f0d82610ec7565b810181811067ffffffffffffffff82111715610f2c57610f2b610ed7565b5b80604052505050565b5f610f3e610cdd565b9050610f4a8282610f04565b919050565b5f67ffffffffffffffff821115610f6957610f68610ed7565b5b610f7282610ec7565b9050602081019050919050565b828183375f83830152505050565b5f610f9f610f9a84610f4f565b610f35565b905082815260208101848484011115610fbb57610fba610ec3565b5b610fc6848285610f7f565b509392505050565b5f82601f830112610fe257610fe1610d73565b5b8135610ff2848260208601610f8d565b91505092915050565b5f602082840312156110105761100f610ce6565b5b5f82013567ffffffffffffffff81111561102d5761102c610cea565b5b61103984828501610fce565b91505092915050565b61104b81610dd4565b82525050565b5f6020820190506110645f830184611042565b92915050565b61107381610d0d565b82525050565b5f60208201905061108c5f83018461106a565b92915050565b5f8115159050919050565b6110a681611092565b82525050565b5f6020820190506110bf5f83018461109d565b92915050565b5f81519050919050565b5f82825260208201905092915050565b5f5b838110156110fc5780820151818401526020810190506110e1565b5f8484015250505050565b5f611111826110c5565b61111b81856110cf565b935061112b8185602086016110df565b61113481610ec7565b840191505092915050565b5f6080820190506111525f830187611042565b61115f6020830186611042565b81810360408301526111718185611107565b9050611180606083018461109d565b95945050505050565b7f4c6f6769633a206e6f74206f776e6572000000000000000000000000000000005f82015250565b5f6111bd6010836110cf565b91506111c882611189565b602082019050919050565b5f6020820190508181035f8301526111ea816111b1565b9050919050565b7f4c6f67696356323a206e6f20737562736372697074696f6e20666f756e6400005f82015250565b5f611225601e836110cf565b9150611230826111f1565b602082019050919050565b5f6020820190508181035f83015261125281611219565b9050919050565b7f4c6f67696356323a206163636f756e7420616c726561647920706175736564005f82015250565b5f61128d601f836110cf565b915061129882611259565b602082019050919050565b5f6020820190508181035f8301526112ba81611281565b9050919050565b7f4c6f67696356323a20656d70747920706c616e206e616d6500000000000000005f82015250565b5f6112f56018836110cf565b9150611300826112c1565b602082019050919050565b5f6020820190508181035f830152611322816112e9565b9050919050565b7f4c6f67696356323a207072696365206d757374206265203e20300000000000005f82015250565b5f61135d601a836110cf565b915061136882611329565b602082019050919050565b5f6020820190508181035f83015261138a81611351565b9050919050565b7f4c6f67696356323a206475726174696f6e206d757374206265203e20300000005f82015250565b5f6113c5601d836110cf565b91506113d082611391565b602082019050919050565b5f6020820190508181035f8301526113f2816113b9565b9050919050565b5f81905092915050565b5f61140e83856113f9565b935061141b838584610f7f565b82840190509392505050565b5f611433828486611403565b91508190509392505050565b5f6040820190506114525f830185611042565b61145f6020830184611042565b9392505050565b7f4c6f67696356323a20706c616e20646f6573206e6f74206578697374000000005f82015250565b5f61149a601c836110cf565b91506114a582611466565b602082019050919050565b5f6020820190508181035f8301526114c78161148e565b9050919050565b7f4c6f67696356323a20696e636f72726563742045544820616d6f756e740000005f82015250565b5f611502601d836110cf565b915061150d826114ce565b602082019050919050565b5f6020820190508181035f83015261152f816114f6565b9050919050565b7f4e487b71000000000000000000000000000000000000000000000000000000005f52601160045260245ffd5b5f61156d82610dd4565b915061157883610dd4565b92508282019050808211156115905761158f611536565b5b92915050565b7f4e487b71000000000000000000000000000000000000000000000000000000005f52602260045260245ffd5b5f60028204905060018216806115da57607f821691505b6020821081036115ed576115ec611596565b5b50919050565b5f819050815f5260205f209050919050565b5f6020601f8301049050919050565b5f82821b905092915050565b5f6008830261164f7fffffffffffffffffffffffffffffffffffffffffffffffffffffffffffffffff82611614565b6116598683611614565b95508019841693508086168417925050509392505050565b5f819050919050565b5f61169461168f61168a84610dd4565b611671565b610dd4565b9050919050565b5f819050919050565b6116ad8361167a565b6116c16116b98261169b565b848454611620565b825550505050565b5f90565b6116d56116c9565b6116e08184846116a4565b505050565b5b81811015611703576116f85f826116cd565b6001810190506116e6565b5050565b601f82111561174857611719816115f3565b61172284611605565b81016020851015611731578190505b61174561173d85611605565b8301826116e5565b50505b505050565b5f82821c905092915050565b5f6117685f198460080261174d565b1980831691505092915050565b5f6117808383611759565b9150826002028217905092915050565b611799826110c5565b67ffffffffffffffff8111156117b2576117b1610ed7565b5b6117bc82546115c3565b6117c7828285611707565b5f60209050601f8311600181146117f8575f84156117e6578287015190505b6117f08582611775565b865550611857565b601f198416611806866115f3565b5f5b8281101561182d57848901518255600182019150602085019450602081019050611808565b8683101561184a5784890151611846601f891682611759565b8355505b6001600288020188555050505b505050505050565b5f61186a83856110cf565b9350611877838584610f7f565b61188083610ec7565b840190509392505050565b5f6040820190508181035f8301526118a481858761185f565b90506118b36020830184611042565b949350505050565b7f4c6f67696356323a206163636f756e74206973206e6f742070617573656400005f82015250565b5f6118ef601e836110cf565b91506118fa826118bb565b602082019050919050565b5f6020820190508181035f83015261191c816118e3565b905091905056fea2646970667358221220c7cda43f3e00e41c8c26c5900515dd2d5bffb01a5cd8af97d570e07bda1c277164736f6c63430008140033","linkReferences":{}},"methodIdentifiers":{"addPlan(string,uint256,uint256)":"4b601340","isActive(address)":"9f8a13d7","logicContract()":"cc0e97c9","owner()":"8da5cb5b","pauseAccount(address)":"484d1ad6","planDuration(string)":"e1c143ac","planPrices(string)":"669469d1","resumeAccount(address)":"f66d9820","subscribe(string)":"507e7888","subscriptions(address)":"f046395a"},"id":1}