{"abi":[{"type":"function","name":"getBadge","inputs":[{"name":"user","type":"address","internalType":"address"}],"outputs":[{"name":"","type":"string","internalType":"string"}],"stateMutability":"view"},{"type":"function","name":"setBadge","inputs":[{"name":"user","type":"address","internalType":"address"},{"name":"badge","type":"string","internalType":"string"}],"outputs":[],"stateMutability":"nonpayable"},{"type":"event","name":"BadgeSet","inputs":[{"name":"user","type":"address","indexed":true,"internalType":"address"},{"name":"badge","type":"string","indexed":false,"internalType":"string"}],"anonymous":false}],"bytecode":{"object":"0x6080604052348015600e575f5ffd5b506107798061001c5f395ff3fe608060405234801561000f575f5ffd5b5060043610610034575f3560e01c80636d309c6314610038578063c254de8814610054575b5f5ffd5b610052600480360381019061004d91906102b4565b610084565b005b61006e60048036038101906100699190610311565b610125565b60405161007b91906103ac565b60405180910390f35b81815f5f8673ffffffffffffffffffffffffffffffffffffffff1673ffffffffffffffffffffffffffffffffffffffff1681526020019081526020015f2091826100cf92919061061a565b508273ffffffffffffffffffffffffffffffffffffffff167fca76d75f7a469b4959c4eec9e73eda8d8908d059bbe79b79ed62d4b2316b0c3b8383604051610118929190610721565b60405180910390a2505050565b60605f5f8373ffffffffffffffffffffffffffffffffffffffff1673ffffffffffffffffffffffffffffffffffffffff1681526020019081526020015f20805461016e90610430565b80601f016020809104026020016040519081016040528092919081815260200182805461019a90610430565b80156101e55780601f106101bc576101008083540402835291602001916101e5565b820191905f5260205f20905b8154815290600101906020018083116101c857829003601f168201915b50505050509050919050565b5f5ffd5b5f5ffd5b5f73ffffffffffffffffffffffffffffffffffffffff82169050919050565b5f610222826101f9565b9050919050565b61023281610218565b811461023c575f5ffd5b50565b5f8135905061024d81610229565b92915050565b5f5ffd5b5f5ffd5b5f5ffd5b5f5f83601f84011261027457610273610253565b5b8235905067ffffffffffffffff81111561029157610290610257565b5b6020830191508360018202830111156102ad576102ac61025b565b5b9250929050565b5f5f5f604084860312156102cb576102ca6101f1565b5b5f6102d88682870161023f565b935050602084013567ffffffffffffffff8111156102f9576102f86101f5565b5b6103058682870161025f565b92509250509250925092565b5f60208284031215610326576103256101f1565b5b5f6103338482850161023f565b91505092915050565b5f81519050919050565b5f82825260208201905092915050565b8281835e5f83830152505050565b5f601f19601f8301169050919050565b5f61037e8261033c565b6103888185610346565b9350610398818560208601610356565b6103a181610364565b840191505092915050565b5f6020820190508181035f8301526103c48184610374565b905092915050565b5f82905092915050565b7f4e487b71000000000000000000000000000000000000000000000000000000005f52604160045260245ffd5b7f4e487b71000000000000000000000000000000000000000000000000000000005f52602260045260245ffd5b5f600282049050600182168061044757607f821691505b60208210810361045a57610459610403565b5b50919050565b5f819050815f5260205f209050919050565b5f6020601f8301049050919050565b5f82821b905092915050565b5f600883026104bc7fffffffffffffffffffffffffffffffffffffffffffffffffffffffffffffffff82610481565b6104c68683610481565b95508019841693508086168417925050509392505050565b5f819050919050565b5f819050919050565b5f61050a610505610500846104de565b6104e7565b6104de565b9050919050565b5f819050919050565b610523836104f0565b61053761052f82610511565b84845461048d565b825550505050565b5f5f905090565b61054e61053f565b61055981848461051a565b505050565b5f5b8281101561057f576105745f828401610546565b600181019050610560565b505050565b601f8211156105d257828211156105d15761059e81610460565b6105a783610472565b6105b085610472565b60208610156105bd575f90505b8083016105cc8284038261055e565b505050505b5b505050565b5f82821c905092915050565b5f6105f25f19846008026105d7565b1980831691505092915050565b5f61060a83836105e3565b9150826002028217905092915050565b61062483836103cc565b67ffffffffffffffff81111561063d5761063c6103d6565b5b6106478254610430565b610652828285610584565b5f601f83116001811461067f575f841561066d578287013590505b61067785826105ff565b8655506106de565b601f19841661068d86610460565b5f5b828110156106b45784890135825560018201915060208501945060208101905061068f565b868310156106d157848901356106cd601f8916826105e3565b8355505b6001600288020188555050505b50505050505050565b828183375f83830152505050565b5f6107008385610346565b935061070d8385846106e7565b61071683610364565b840190509392505050565b5f6020820190508181035f83015261073a8184866106f5565b9050939250505056fea2646970667358221220ba81bf92c4f973ddcdf0a3e218cd58ec5fed28f5987c314562f5cab8dba6e34d64736f6c63430008210033","linkReferences":{}},"methodIdentifiers":{"getBadge(address)":"c254de88","setBadge(address,string)":"6d309c63"},"id":0}