{"abi":[{"type":"constructor","inputs":[{"name":"_owners","type":"address[]","internalType":"address[]"},{"name":"_requiredConfirmations","type":"uint256","internalType":"uint256"}],"stateMutability":"nonpayable"},{"type":"fallback","stateMutability":"payable"},{"type":"receive","stateMutability":"payable"},{"type":"function","name":"confirmTransaction","inputs":[{"name":"txId","type":"uint256","internalType":"uint256"}],"outputs":[],"stateMutability":"nonpayable"},{"type":"function","name":"confirmationsNeeded","inputs":[{"name":"txId","type":"uint256","internalType":"uint256"}],"outputs":[{"name":"","type":"uint256","internalType":"uint256"}],"stateMutability":"view"},{"type":"function","name":"executeTransaction","inputs":[{"name":"txId","type":"uint256","internalType":"uint256"}],"outputs":[],"stateMutability":"nonpayable"},{"type":"function","name":"getOwners","inputs":[],"outputs":[{"name":"","type":"address[]","internalType":"address[]"}],"stateMutability":"view"},{"type":"function","name":"getTransaction","inputs":[{"name":"txId","type":"uint256","internalType":"uint256"}],"outputs":[{"name":"to","type":"address","internalType":"address"},{"name":"value","type":"uint256","internalType":"uint256"},{"name":"data","type":"bytes","internalType":"bytes"},{"name":"executed","type":"bool","internalType":"bool"},{"name":"confirmations","type":"uint256","internalType":"uint256"}],"stateMutability":"view"},{"type":"function","name":"getTransactionCount","inputs":[],"outputs":[{"name":"","type":"uint256","internalType":"uint256"}],"stateMutability":"view"},{"type":"function","name":"hasConfirmed","inputs":[{"name":"txId","type":"uint256","internalType":"uint256"},{"name":"owner","type":"address","internalType":"address"}],"outputs":[{"name":"","type":"bool","internalType":"bool"}],"stateMutability":"view"},{"type":"function","name":"isConfirmed","inputs":[{"name":"","type":"uint256","internalType":"uint256"},{"name":"","type":"address","internalType":"address"}],"outputs":[{"name":"","type":"bool","internalType":"bool"}],"stateMutability":"view"},{"type":"function","name":"isOwner","inputs":[{"name":"","type":"address","internalType":"address"}],"outputs":[{"name":"","type":"bool","internalType":"bool"}],"stateMutability":"view"},{"type":"function","name":"owners","inputs":[{"name":"","type":"uint256","internalType":"uint256"}],"outputs":[{"name":"","type":"address","internalType":"address"}],"stateMutability":"view"},{"type":"function","name":"requiredConfirmations","inputs":[],"outputs":[{"name":"","type":"uint256","internalType":"uint256"}],"stateMutability":"view"},{"type":"function","name":"revokeConfirmation","inputs":[{"name":"txId","type":"uint256","internalType":"uint256"}],"outputs":[],"stateMutability":"nonpayable"},{"type":"function","name":"submitTransaction","inputs":[{"name":"to","type":"address","internalType":"address"},{"name":"value","type":"uint256","internalType":"uint256"},{"name":"data","type":"bytes","internalType":"bytes"}],"outputs":[{"name":"txId","type":"uint256","internalType":"uint256"}],"stateMutability":"nonpayable"},{"type":"function","name":"transactions","inputs":[{"name":"","type":"uint256","internalType":"uint256"}],"outputs":[{"name":"to","type":"address","internalType":"address"},{"name":"value","type":"uint256","internalType":"uint256"},{"name":"data","type":"bytes","internalType":"bytes"},{"name":"executed","type":"bool","internalType":"bool"},{"name":"confirmations","type":"uint256","internalType":"uint256"}],"stateMutability":"view"},{"type":"event","name":"ConfirmationRevoked","inputs":[{"name":"txId","type":"uint256","indexed":true,"internalType":"uint256"},{"name":"owner","type":"address","indexed":true,"internalType":"address"}],"anonymous":false},{"type":"event","name":"Deposit","inputs":[{"name":"sender","type":"address","indexed":true,"internalType":"address"},{"name":"amount","type":"uint256","indexed":false,"internalType":"uint256"},{"name":"balance","type":"uint256","indexed":false,"internalType":"uint256"}],"anonymous":false},{"type":"event","name":"TransactionConfirmed","inputs":[{"name":"txId","type":"uint256","indexed":true,"internalType":"uint256"},{"name":"owner","type":"address","indexed":true,"internalType":"address"}],"anonymous":false},{"type":"event","name":"TransactionExecuted","inputs":[{"name":"txId","type":"uint256","indexed":true,"internalType":"uint256"},{"name":"executor","type":"address","indexed":true,"internalType":"address"}],"anonymous":false},{"type":"event","name":"TransactionSubmitted","inputs":[{"name":"txId","type":"uint256","indexed":true,"internalType":"uint256"},{"name":"submitter","type":"address","indexed":true,"internalType":"address"},{"name":"to","type":"address","indexed":true,"internalType":"address"},{"name":"value","type":"uint256","indexed":false,"internalType":"uint256"},{"name":"data","type":"bytes","indexed":false,"internalType":"bytes"}],"anonymous":false},{"type":"error","name":"AlreadyConfirmed","inputs":[]},{"type":"error","name":"DuplicateOwner","inputs":[]},{"type":"error","name":"ExecutionFailed","inputs":[]},{"type":"error","name":"InsufficientConfirmations","inputs":[]},{"type":"error","name":"InvalidOwnerAddress","inputs":[]},{"type":"error","name":"InvalidRequirement","inputs":[]},{"type":"error","name":"NotConfirmed","inputs":[]},{"type":"error","name":"NotOwner","inputs":[]},{"type":"error","name":"TxAlreadyExecuted","inputs":[]},{"type":"error","name":"TxDoesNotExist","inputs":[]}],"bytecode":{"object":"0x6080604052346101e757610eb380380380610019816101eb565b9283398101906040818303126101e75780516001600160401b0381116101e757810182601f820112156101e7578051926001600160401b038411610169578360051b9160208061006a8186016101eb565b8097815201938201019182116101e757602001915b8183106101c757846020850151908051156101ae57811580156101bd575b6101ae575f5b815181101561019b57600581901b8201602001516001600160a01b031690811561018c57815f52600260205260ff60405f20541661017d575f828152600260205260408120805460ff191660011790555491680100000000000000008310156101695760018301805f55831015610155575f80527f290decd9548b62a8d60345a988386fc84ba6bc95484008f6362f93160ef3e56390920180546001600160a01b0319169092179091556001016100a3565b634e487b7160e01b5f52603260045260245ffd5b634e487b7160e01b5f52604160045260245ffd5b632f1ef11560e21b5f5260045ffd5b633649397d60e21b5f5260045ffd5b82600155604051610ca290816102118239f35b6327c97a1360e21b5f5260045ffd5b508051821161009d565b82516001600160a01b03811681036101e75781526020928301920161007f565b5f80fd5b6040519190601f01601f191682016001600160401b038111838210176101695760405256fe6080806040526004361015610028575b5036156100205761001e610c37565b005b61001e610c37565b5f3560e01c908163025e7c27146109f35750806308aff933146107e357806320ea8d86146109175780632e7700f0146108fa5780632f54bf6e146108bd57806333ea3dc81461085d5780634b610ce11461082c57806380f59a65146107e357806382e717f7146107c65780639ace38c214610760578063a0e67e2b1461069a578063c01a8c84146105a8578063c6427474146102775763ee22610b146100ce575f61000f565b3461027357602036600319011261027357600435335f52600260205260ff60405f20541615610264576004548110156102555760ff600361010e83610ac5565b500154166102465761011f81610ac5565b506004810154600154116102375760038101600160ff1982541617905560018060a01b038154169060026001820154910190604051915f9080549061016382610af5565b916001811690811561022057506001146101ee575b5050915f939181859403925af13d156101e9573d61019581610c1b565b906101a36040519283610b2d565b81525f60203d92013e5b156101da5733907fefc13bdcf58f184ea7cae26b499fb33b539e01d0197cea456f3ada289b8cf19b5f80a3005b632b3f6d1160e21b5f5260045ffd5b6101ad565b9091505f5260205f205f905b82821061020c57505082018183610178565b6001816020925484880152019101906101fa565b60ff19168652505080151502830190508183610178565b63e16db4b360e01b5f5260045ffd5b632ea945cf60e01b5f5260045ffd5b639e1b596f60e01b5f5260045ffd5b6330cd747160e01b5f5260045ffd5b5f80fd5b3461027357606036600319011261027357610290610a5f565b6024359060443567ffffffffffffffff8111610273573660238201121561027357806004013567ffffffffffffffff8111610273576024820191602482369201011161027357335f52600260205260ff60405f2054161561026457600454926040519060a0820182811067ffffffffffffffff821117610581576040526001600160a01b0316808252602082018681529093909161032d84610c1b565b9261033b6040519485610b2d565b848452848360208601375f6020868601015260408201938452606082015f815260808301915f835268010000000000000000891015610581576001890160045561038489610ac5565b949094610595575184546001600160a01b0319166001600160a01b039190911617845551600184015593518051909490600284019067ffffffffffffffff8111610581576103d28254610af5565b601f811161053c575b509289959260209b959289958d99601f82116001146104965790807f2ecf8c4571be1f8a0b1e6feaa711128f3f8038e97869aa59d0f595e21f50eaa09a9b6004969594935f9261048b575b50508160011b915f199060031b1c19161790555b600384019051151560ff801983541691161790555191015560405192835260408984015281604084015260608301375f606085830101526060813395601f80199101168101030190a4604051908152f35b015190505f80610426565b9091929399601f19831691845f52815f20925f5b81811061050c5750926001928592600498967f2ecf8c4571be1f8a0b1e6feaa711128f3f8038e97869aa59d0f595e21f50eaa09e9f9896106104f4575b505050811b01905561043a565b01515f1960f88460031b161c191690555f80806104e7565b9496989b50919496999b9850918f600181928786015181550195019301918e9a979593918d999c9a9795936104aa565b825f5260205f20601f830160051c81019160208410610577575b601f0160051c01905b81811061056c57506103db565b5f815560010161055f565b9091508190610556565b634e487b7160e01b5f52604160045260245ffd5b634e487b7160e01b5f525f60045260245ffd5b3461027357602036600319011261027357600435335f52600260205260ff60405f20541615610264576004548110156102555760ff60036105e883610ac5565b50015416610246575f81815260036020908152604080832033845290915290205460ff1661068b575f8181526003602090815260408083203384529091529020805460ff19166001179055600461063e82610ac5565b500180549060018201809211610677575533907f15c2f311c9e0f53b50388279894aeff029a3457884a6601e924fca879e12adcc5f80a3005b634e487b7160e01b5f52601160045260245ffd5b635f8a9c0b60e01b5f5260045ffd5b34610273575f366003190112610273576040518060205f54928381520180925f80527f290decd9548b62a8d60345a988386fc84ba6bc95484008f6362f93160ef3e563905f5b81811061074157505050816106f6910382610b2d565b604051918291602083019060208452518091526040830191905f5b81811061071f575050500390f35b82516001600160a01b0316845285945060209384019390920191600101610711565b82546001600160a01b03168452602090930192600192830192016106e0565b34610273576020366003190112610273576004356004548110156102735761078790610ac5565b5060018060a01b038154166107c26001830154926107a760028201610b4f565b90600460ff6003830154169101549160405195869586610a75565b0390f35b34610273575f366003190112610273576020600154604051908152f35b34610273576040366003190112610273576107fc610a49565b6004355f52600360205260405f209060018060a01b03165f52602052602060ff60405f2054166040519015158152f35b346102735760203660031901126102735760043560045481101561025557610855602091610bef565b604051908152f35b34610273576020366003190112610273576004356004548110156102555761088490610ac5565b5060018060a01b038154166107c260018301549260ff6003820154166108b1600260048401549301610b4f565b60405195869586610a75565b34610273576020366003190112610273576001600160a01b036108de610a5f565b165f526002602052602060ff60405f2054166040519015158152f35b34610273575f366003190112610273576020600454604051908152f35b3461027357602036600319011261027357600435335f52600260205260ff60405f20541615610264576004548110156102555760ff600361095783610ac5565b50015416610246575f81815260036020908152604080832033845290915290205460ff16156109e4575f8181526003602090815260408083203384529091529020805460ff1916905560046109ab82610ac5565b500180545f19810191908211610677575533907fdd7f1999a4389ea99f79c84df2162a8e32e72dd35838b19e4094bf0357c1b62e5f80a3005b637238834d60e11b5f5260045ffd5b3461027357602036600319011261027357600435905f54821015610273575f80527f290decd9548b62a8d60345a988386fc84ba6bc95484008f6362f93160ef3e563909101546001600160a01b03168152602090f35b602435906001600160a01b038216820361027357565b600435906001600160a01b038216820361027357565b9160809360209160c0939897969860018060a01b031685528285015260a0604085015280519182918260a0870152018385015e5f828285010152601f801991011682010194151560608201520152565b600454811015610ae15760045f52600560205f20910201905f90565b634e487b7160e01b5f52603260045260245ffd5b90600182811c92168015610b23575b6020831014610b0f57565b634e487b7160e01b5f52602260045260245ffd5b91607f1691610b04565b90601f8019910116810190811067ffffffffffffffff82111761058157604052565b9060405191825f825492610b6284610af5565b8084529360018116908115610bcd5750600114610b89575b50610b8792500383610b2d565b565b90505f9291925260205f20905f915b818310610bb1575050906020610b87928201015f610b7a565b6020919350806001915483858901015201910190918492610b98565b905060209250610b8794915060ff191682840152151560051b8201015f610b7a565b610bfa600491610ac5565b5001546001549081811015610c155781039081116106775790565b50505f90565b67ffffffffffffffff811161058157601f01601f191660200190565b476040519034825260208201527f90890809c654f11d6e72a28fa60149770a0d11ec6c92319d6ceb2bb0a4ea1a1560403392a256fea264697066735822122034e0f916941577ea3cef41442b76617d7cd3456721404fb28344442af7f234e964736f6c634300081a0033","linkReferences":{}},"methodIdentifiers":{"confirmTransaction(uint256)":"c01a8c84","confirmationsNeeded(uint256)":"4b610ce1","executeTransaction(uint256)":"ee22610b","getOwners()":"a0e67e2b","getTransaction(uint256)":"33ea3dc8","getTransactionCount()":"2e7700f0","hasConfirmed(uint256,address)":"08aff933","isConfirmed(uint256,address)":"80f59a65","isOwner(address)":"2f54bf6e","owners(uint256)":"025e7c27","requiredConfirmations()":"82e717f7","revokeConfirmation(uint256)":"20ea8d86","submitTransaction(address,uint256,bytes)":"c6427474","transactions(uint256)":"9ace38c2"},"id":0}