{"abi":[{"type":"function","name":"getProfile","inputs":[{"name":"player","type":"address","internalType":"address"}],"outputs":[{"name":"","type":"tuple","internalType":"struct PluginStore.PlayerProfile","components":[{"name":"name","type":"string","internalType":"string"},{"name":"avatar","type":"string","internalType":"string"}]}],"stateMutability":"view"},{"type":"function","name":"plugins","inputs":[{"name":"","type":"string","internalType":"string"}],"outputs":[{"name":"","type":"address","internalType":"address"}],"stateMutability":"view"},{"type":"function","name":"registerPlugin","inputs":[{"name":"key","type":"string","internalType":"string"},{"name":"plugin","type":"address","internalType":"address"}],"outputs":[],"stateMutability":"nonpayable"},{"type":"function","name":"runPlugin","inputs":[{"name":"plugin","type":"address","internalType":"address"},{"name":"functionSignature","type":"string","internalType":"string"},{"name":"user","type":"address","internalType":"address"},{"name":"value","type":"string","internalType":"string"}],"outputs":[{"name":"result","type":"bytes","internalType":"bytes"}],"stateMutability":"nonpayable"},{"type":"function","name":"runPluginView","inputs":[{"name":"plugin","type":"address","internalType":"address"},{"name":"functionSignature","type":"string","internalType":"string"},{"name":"user","type":"address","internalType":"address"}],"outputs":[{"name":"result","type":"bytes","internalType":"bytes"}],"stateMutability":"view"},{"type":"function","name":"runPluginViewByKey","inputs":[{"name":"key","type":"string","internalType":"string"},{"name":"functionSignature","type":"string","internalType":"string"},{"name":"user","type":"address","internalType":"address"}],"outputs":[{"name":"result","type":"bytes","internalType":"bytes"}],"stateMutability":"view"},{"type":"function","name":"setProfile","inputs":[{"name":"name","type":"string","internalType":"string"},{"name":"avatar","type":"string","internalType":"string"}],"outputs":[],"stateMutability":"nonpayable"},{"type":"event","name":"PluginRegistered","inputs":[{"name":"key","type":"string","indexed":true,"internalType":"string"},{"name":"plugin","type":"address","indexed":true,"internalType":"address"}],"anonymous":false},{"type":"event","name":"PluginRun","inputs":[{"name":"plugin","type":"address","indexed":true,"internalType":"address"},{"name":"functionSignature","type":"string","indexed":false,"internalType":"string"},{"name":"success","type":"bool","indexed":false,"internalType":"bool"},{"name":"result","type":"bytes","indexed":false,"internalType":"bytes"}],"anonymous":false},{"type":"event","name":"PluginViewRun","inputs":[{"name":"plugin","type":"address","indexed":true,"internalType":"address"},{"name":"functionSignature","type":"string","indexed":false,"internalType":"string"},{"name":"success","type":"bool","indexed":false,"internalType":"bool"},{"name":"result","type":"bytes","indexed":false,"internalType":"bytes"}],"anonymous":false},{"type":"event","name":"ProfileUpdated","inputs":[{"name":"player","type":"address","indexed":true,"internalType":"address"},{"name":"name","type":"string","indexed":false,"internalType":"string"},{"name":"avatar","type":"string","indexed":false,"internalType":"string"}],"anonymous":false},{"type":"error","name":"PluginCallFailed","inputs":[{"name":"reason","type":"bytes","internalType":"bytes"}]},{"type":"error","name":"PluginNotRegistered","inputs":[{"name":"key","type":"string","internalType":"string"}]},{"type":"error","name":"PluginViewCallFailed","inputs":[{"name":"reason","type":"bytes","internalType":"bytes"}]}],"bytecode":{"object":"0x6080604052348015600e575f5ffd5b506115a48061001c5f395ff3fe608060405234801561000f575f5ffd5b506004361061007b575f3560e01c80633da6f884116100595780633da6f884146100fb578063620741301461012b578063719e37ae1461015b578063798b4c57146101775761007b565b8063042181a11461007f5780630f53a470146100af57806317982e20146100df575b5f5ffd5b61009960048036038101906100949190610b47565b6101a7565b6040516100a69190610c5a565b60405180910390f35b6100c960048036038101906100c49190610c7a565b610347565b6040516100d69190610d38565b60405180910390f35b6100f960048036038101906100f49190610d58565b6104bc565b005b61011560048036038101906101109190610db5565b61057a565b6040516101229190610c5a565b60405180910390f35b61014560048036038101906101409190610e46565b610776565b6040516101529190610c5a565b60405180910390f35b61017560048036038101906101709190610eb7565b6108bb565b005b610191600480360381019061018c919061105d565b610a19565b60405161019e91906110b3565b60405180910390f35b60605f86868686866040516024016101c193929190611108565b60405160208183030381529060405291906040516101e0929190611166565b60405180910390207bffffffffffffffffffffffffffffffffffffffffffffffffffffffff19166020820180517bffffffffffffffffffffffffffffffffffffffffffffffffffffffff838183161783525050505090505f5f8973ffffffffffffffffffffffffffffffffffffffff168360405161025e91906111b8565b5f604051808303815f865af19150503d805f8114610297576040519150601f19603f3d011682016040523d82523d5f602084013e61029c565b606091505b50915091508973ffffffffffffffffffffffffffffffffffffffff167fcc8111a675277431079eff340128ece3f30b6eeadd7d722d6511848916dc54508a8a85856040516102ed94939291906111e8565b60405180910390a28161033757806040517f8a51cc3700000000000000000000000000000000000000000000000000000000815260040161032e9190610c5a565b60405180910390fd5b8093505050509695505050505050565b61034f610a61565b5f5f8373ffffffffffffffffffffffffffffffffffffffff1673ffffffffffffffffffffffffffffffffffffffff1681526020019081526020015f206040518060400160405290815f820180546103a59061125a565b80601f01602080910402602001604051908101604052809291908181526020018280546103d19061125a565b801561041c5780601f106103f35761010080835404028352916020019161041c565b820191905f5260205f20905b8154815290600101906020018083116103ff57829003601f168201915b505050505081526020016001820180546104359061125a565b80601f01602080910402602001604051908101604052809291908181526020018280546104619061125a565b80156104ac5780601f10610483576101008083540402835291602001916104ac565b820191905f5260205f20905b81548152906001019060200180831161048f57829003601f168201915b5050505050815250509050919050565b80600184846040516104cf929190611166565b90815260200160405180910390205f6101000a81548173ffffffffffffffffffffffffffffffffffffffff021916908373ffffffffffffffffffffffffffffffffffffffff1602179055508073ffffffffffffffffffffffffffffffffffffffff168383604051610541929190611166565b60405180910390207fed6400c964f3b2e51ac38d6cd44966781ddae4e16104e53a530a08b67f9ed29360405160405180910390a3505050565b60605f6001878760405161058f929190611166565b90815260200160405180910390205f9054906101000a900473ffffffffffffffffffffffffffffffffffffffff1690505f73ffffffffffffffffffffffffffffffffffffffff168173ffffffffffffffffffffffffffffffffffffffff16036106315786866040517fa330351400000000000000000000000000000000000000000000000000000000815260040161062892919061128a565b60405180910390fd5b5f85858560405160240161064591906110b3565b6040516020818303038152906040529190604051610664929190611166565b60405180910390207bffffffffffffffffffffffffffffffffffffffffffffffffffffffff19166020820180517bffffffffffffffffffffffffffffffffffffffffffffffffffffffff838183161783525050505090505f5f8373ffffffffffffffffffffffffffffffffffffffff16836040516106e291906111b8565b5f60405180830381855afa9150503d805f811461071a576040519150601f19603f3d011682016040523d82523d5f602084013e61071f565b606091505b50915091508161076657806040517f3fbed7fb00000000000000000000000000000000000000000000000000000000815260040161075d9190610c5a565b60405180910390fd5b8094505050505095945050505050565b60605f84848460405160240161078c91906110b3565b60405160208183030381529060405291906040516107ab929190611166565b60405180910390207bffffffffffffffffffffffffffffffffffffffffffffffffffffffff19166020820180517bffffffffffffffffffffffffffffffffffffffffffffffffffffffff838183161783525050505090505f5f8773ffffffffffffffffffffffffffffffffffffffff168360405161082991906111b8565b5f60405180830381855afa9150503d805f8114610861576040519150601f19603f3d011682016040523d82523d5f602084013e610866565b606091505b5091509150816108ad57806040517f3fbed7fb0000000000000000000000000000000000000000000000000000000081526004016108a49190610c5a565b60405180910390fd5b809350505050949350505050565b604051806040016040528085858080601f0160208091040260200160405190810160405280939291908181526020018383808284375f81840152601f19601f82011690508083019250505050505050815260200183838080601f0160208091040260200160405190810160405280939291908181526020018383808284375f81840152601f19601f820116905080830192505050505050508152505f5f3373ffffffffffffffffffffffffffffffffffffffff1673ffffffffffffffffffffffffffffffffffffffff1681526020019081526020015f205f820151815f0190816109a59190611466565b5060208201518160010190816109bb9190611466565b509050503373ffffffffffffffffffffffffffffffffffffffff167f6eb3a1c6a4675ba92d44e090515b1ceea358f26565d2854df0c99c3f5eaf985085858585604051610a0b9493929190611535565b60405180910390a250505050565b6001818051602081018201805184825260208301602085012081835280955050505050505f915054906101000a900473ffffffffffffffffffffffffffffffffffffffff1681565b604051806040016040528060608152602001606081525090565b5f604051905090565b5f5ffd5b5f5ffd5b5f73ffffffffffffffffffffffffffffffffffffffff82169050919050565b5f610ab582610a8c565b9050919050565b610ac581610aab565b8114610acf575f5ffd5b50565b5f81359050610ae081610abc565b92915050565b5f5ffd5b5f5ffd5b5f5ffd5b5f5f83601f840112610b0757610b06610ae6565b5b8235905067ffffffffffffffff811115610b2457610b23610aea565b5b602083019150836001820283011115610b4057610b3f610aee565b5b9250929050565b5f5f5f5f5f5f60808789031215610b6157610b60610a84565b5b5f610b6e89828a01610ad2565b965050602087013567ffffffffffffffff811115610b8f57610b8e610a88565b5b610b9b89828a01610af2565b95509550506040610bae89828a01610ad2565b935050606087013567ffffffffffffffff811115610bcf57610bce610a88565b5b610bdb89828a01610af2565b92509250509295509295509295565b5f81519050919050565b5f82825260208201905092915050565b8281835e5f83830152505050565b5f601f19601f8301169050919050565b5f610c2c82610bea565b610c368185610bf4565b9350610c46818560208601610c04565b610c4f81610c12565b840191505092915050565b5f6020820190508181035f830152610c728184610c22565b905092915050565b5f60208284031215610c8f57610c8e610a84565b5b5f610c9c84828501610ad2565b91505092915050565b5f81519050919050565b5f82825260208201905092915050565b5f610cc982610ca5565b610cd38185610caf565b9350610ce3818560208601610c04565b610cec81610c12565b840191505092915050565b5f604083015f8301518482035f860152610d118282610cbf565b91505060208301518482036020860152610d2b8282610cbf565b9150508091505092915050565b5f6020820190508181035f830152610d508184610cf7565b905092915050565b5f5f5f60408486031215610d6f57610d6e610a84565b5b5f84013567ffffffffffffffff811115610d8c57610d8b610a88565b5b610d9886828701610af2565b93509350506020610dab86828701610ad2565b9150509250925092565b5f5f5f5f5f60608688031215610dce57610dcd610a84565b5b5f86013567ffffffffffffffff811115610deb57610dea610a88565b5b610df788828901610af2565b9550955050602086013567ffffffffffffffff811115610e1a57610e19610a88565b5b610e2688828901610af2565b93509350506040610e3988828901610ad2565b9150509295509295909350565b5f5f5f5f60608587031215610e5e57610e5d610a84565b5b5f610e6b87828801610ad2565b945050602085013567ffffffffffffffff811115610e8c57610e8b610a88565b5b610e9887828801610af2565b93509350506040610eab87828801610ad2565b91505092959194509250565b5f5f5f5f60408587031215610ecf57610ece610a84565b5b5f85013567ffffffffffffffff811115610eec57610eeb610a88565b5b610ef887828801610af2565b9450945050602085013567ffffffffffffffff811115610f1b57610f1a610a88565b5b610f2787828801610af2565b925092505092959194509250565b5f5ffd5b7f4e487b71000000000000000000000000000000000000000000000000000000005f52604160045260245ffd5b610f6f82610c12565b810181811067ffffffffffffffff82111715610f8e57610f8d610f39565b5b80604052505050565b5f610fa0610a7b565b9050610fac8282610f66565b919050565b5f67ffffffffffffffff821115610fcb57610fca610f39565b5b610fd482610c12565b9050602081019050919050565b828183375f83830152505050565b5f611001610ffc84610fb1565b610f97565b90508281526020810184848401111561101d5761101c610f35565b5b611028848285610fe1565b509392505050565b5f82601f83011261104457611043610ae6565b5b8135611054848260208601610fef565b91505092915050565b5f6020828403121561107257611071610a84565b5b5f82013567ffffffffffffffff81111561108f5761108e610a88565b5b61109b84828501611030565b91505092915050565b6110ad81610aab565b82525050565b5f6020820190506110c65f8301846110a4565b92915050565b5f82825260208201905092915050565b5f6110e783856110cc565b93506110f4838584610fe1565b6110fd83610c12565b840190509392505050565b5f60408201905061111b5f8301866110a4565b818103602083015261112e8184866110dc565b9050949350505050565b5f81905092915050565b5f61114d8385611138565b935061115a838584610fe1565b82840190509392505050565b5f611172828486611142565b91508190509392505050565b5f81905092915050565b5f61119282610bea565b61119c818561117e565b93506111ac818560208601610c04565b80840191505092915050565b5f6111c38284611188565b915081905092915050565b5f8115159050919050565b6111e2816111ce565b82525050565b5f6060820190508181035f8301526112018186886110dc565b905061121060208301856111d9565b81810360408301526112228184610c22565b905095945050505050565b7f4e487b71000000000000000000000000000000000000000000000000000000005f52602260045260245ffd5b5f600282049050600182168061127157607f821691505b6020821081036112845761128361122d565b5b50919050565b5f6020820190508181035f8301526112a38184866110dc565b90509392505050565b5f819050815f5260205f209050919050565b5f6020601f8301049050919050565b5f82821b905092915050565b5f600883026113087fffffffffffffffffffffffffffffffffffffffffffffffffffffffffffffffff826112cd565b61131286836112cd565b95508019841693508086168417925050509392505050565b5f819050919050565b5f819050919050565b5f61135661135161134c8461132a565b611333565b61132a565b9050919050565b5f819050919050565b61136f8361133c565b61138361137b8261135d565b8484546112d9565b825550505050565b5f5f905090565b61139a61138b565b6113a5818484611366565b505050565b5f5b828110156113cb576113c05f828401611392565b6001810190506113ac565b505050565b601f82111561141e578282111561141d576113ea816112ac565b6113f3836112be565b6113fc856112be565b6020861015611409575f90505b808301611418828403826113aa565b505050505b5b505050565b5f82821c905092915050565b5f61143e5f1984600802611423565b1980831691505092915050565b5f611456838361142f565b9150826002028217905092915050565b61146f82610ca5565b67ffffffffffffffff81111561148857611487610f39565b5b611492825461125a565b61149d8282856113d0565b5f60209050601f8311600181146114ce575f84156114bc578287015190505b6114c6858261144b565b86555061152d565b601f1984166114dc866112ac565b5f5b82811015611503578489015182556001820191506020850194506020810190506114de565b86831015611520578489015161151c601f89168261142f565b8355505b6001600288020188555050505b505050505050565b5f6040820190508181035f83015261154e8186886110dc565b905081810360208301526115638184866110dc565b90509594505050505056fea2646970667358221220f10bf6ca70912f95c5032fecf6e02c816de3afbc4d01e10b6c7d1d2afa7ede0464736f6c63430008210033","linkReferences":{}},"methodIdentifiers":{"getProfile(address)":"0f53a470","plugins(string)":"798b4c57","registerPlugin(string,address)":"17982e20","runPlugin(address,string,address,string)":"042181a1","runPluginView(address,string,address)":"62074130","runPluginViewByKey(string,string,address)":"3da6f884","setProfile(string,string)":"719e37ae"},"id":1}