{"abi":[{"type":"function","name":"addPlan","inputs":[{"name":"plan","type":"string","internalType":"string"},{"name":"price","type":"uint256","internalType":"uint256"},{"name":"duration","type":"uint256","internalType":"uint256"}],"outputs":[],"stateMutability":"nonpayable"},{"type":"function","name":"isActive","inputs":[{"name":"user","type":"address","internalType":"address"}],"outputs":[{"name":"","type":"bool","internalType":"bool"}],"stateMutability":"view"},{"type":"function","name":"logicContract","inputs":[],"outputs":[{"name":"","type":"address","internalType":"address"}],"stateMutability":"view"},{"type":"function","name":"owner","inputs":[],"outputs":[{"name":"","type":"address","internalType":"address"}],"stateMutability":"view"},{"type":"function","name":"planDuration","inputs":[{"name":"","type":"string","internalType":"string"}],"outputs":[{"name":"","type":"uint256","internalType":"uint256"}],"stateMutability":"view"},{"type":"function","name":"planPrices","inputs":[{"name":"","type":"string","internalType":"string"}],"outputs":[{"name":"","type":"uint256","internalType":"uint256"}],"stateMutability":"view"},{"type":"function","name":"subscribe","inputs":[{"name":"plan","type":"string","internalType":"string"}],"outputs":[],"stateMutability":"payable"},{"type":"function","name":"subscriptions","inputs":[{"name":"","type":"address","internalType":"address"}],"outputs":[{"name":"startTime","type":"uint256","internalType":"uint256"},{"name":"endTime","type":"uint256","internalType":"uint256"},{"name":"plan","type":"string","internalType":"string"},{"name":"paused","type":"bool","internalType":"bool"}],"stateMutability":"view"},{"type":"event","name":"PlanAdded","inputs":[{"name":"plan","type":"string","indexed":true,"internalType":"string"},{"name":"price","type":"uint256","indexed":false,"internalType":"uint256"},{"name":"duration","type":"uint256","indexed":false,"internalType":"uint256"}],"anonymous":false},{"type":"event","name":"Subscribed","inputs":[{"name":"user","type":"address","indexed":true,"internalType":"address"},{"name":"plan","type":"string","indexed":false,"internalType":"string"},{"name":"endTime","type":"uint256","indexed":false,"internalType":"uint256"}],"anonymous":false}],"bytecode":{"object":"0x608060405234801561000f575f80fd5b506113458061001d5f395ff3fe60806040526004361061007a575f3560e01c80639f8a13d71161004d5780639f8a13d714610128578063cc0e97c914610164578063e1c143ac1461018e578063f046395a146101ca5761007a565b80634b6013401461007e578063507e7888146100a6578063669469d1146100c25780638da5cb5b146100fe575b5f80fd5b348015610089575f80fd5b506100a4600480360381019061009f91906108a6565b610209565b005b6100c060048036038101906100bb9190610917565b610402565b005b3480156100cd575f80fd5b506100e860048036038101906100e39190610a9a565b610628565b6040516100f59190610af0565b60405180910390f35b348015610109575f80fd5b50610112610655565b60405161011f9190610b48565b60405180910390f35b348015610133575f80fd5b5061014e60048036038101906101499190610b8b565b61067a565b60405161015b9190610bd0565b60405180910390f35b34801561016f575f80fd5b506101786106f3565b6040516101859190610b48565b60405180910390f35b348015610199575f80fd5b506101b460048036038101906101af9190610a9a565b610716565b6040516101c19190610af0565b60405180910390f35b3480156101d5575f80fd5b506101f060048036038101906101eb9190610b8b565b610743565b6040516102009493929190610c63565b60405180910390f35b60015f9054906101000a900473ffffffffffffffffffffffffffffffffffffffff1673ffffffffffffffffffffffffffffffffffffffff163373ffffffffffffffffffffffffffffffffffffffff1614610298576040517f08c379a000000000000000000000000000000000000000000000000000000000815260040161028f90610cf7565b60405180910390fd5b5f84849050116102dd576040517f08c379a00000000000000000000000000000000000000000000000000000000081526004016102d490610d5f565b60405180910390fd5b5f821161031f576040517f08c379a000000000000000000000000000000000000000000000000000000000815260040161031690610dc7565b60405180910390fd5b5f8111610361576040517f08c379a000000000000000000000000000000000000000000000000000000000815260040161035890610e2f565b60405180910390fd5b8160038585604051610374929190610e7b565b9081526020016040518091039020819055508060048585604051610399929190610e7b565b90815260200160405180910390208190555083836040516103bb929190610e7b565b60405180910390207f6c302e47635255da86ba61cb7dee90680396328bf52ee801cbc8eedfb58471d183836040516103f4929190610e93565b60405180910390a250505050565b5f60038383604051610415929190610e7b565b90815260200160405180910390205490505f60048484604051610439929190610e7b565b90815260200160405180910390205490505f821161048c576040517f08c379a000000000000000000000000000000000000000000000000000000000815260040161048390610f04565b60405180910390fd5b8134146104ce576040517f08c379a00000000000000000000000000000000000000000000000000000000081526004016104c590610f6c565b60405180910390fd5b5f4290505f82826104df9190610fb7565b9050604051806080016040528083815260200182815260200187878080601f0160208091040260200160405190810160405280939291908181526020018383808284375f81840152601f19601f8201169050808301925050505050505081526020015f151581525060025f3373ffffffffffffffffffffffffffffffffffffffff1673ffffffffffffffffffffffffffffffffffffffff1681526020019081526020015f205f820151815f01556020820151816001015560408201518160020190816105ab91906111e4565b506060820151816003015f6101000a81548160ff0219169083151502179055509050503373ffffffffffffffffffffffffffffffffffffffff167fffa5088d5660bf54f1f4d68628cc152d5cd6569854c3a92de6b47a720a12f608878784604051610618939291906112df565b60405180910390a2505050505050565b6003818051602081018201805184825260208301602085012081835280955050505050505f915090505481565b60015f9054906101000a900473ffffffffffffffffffffffffffffffffffffffff1681565b5f8060025f8473ffffffffffffffffffffffffffffffffffffffff1673ffffffffffffffffffffffffffffffffffffffff1681526020019081526020015f2090505f81600101541180156106d15750806001015442105b80156106eb5750806003015f9054906101000a900460ff16155b915050919050565b5f8054906101000a900473ffffffffffffffffffffffffffffffffffffffff1681565b6004818051602081018201805184825260208301602085012081835280955050505050505f915090505481565b6002602052805f5260405f205f91509050805f01549080600101549080600201805461076e90611017565b80601f016020809104026020016040519081016040528092919081815260200182805461079a90611017565b80156107e55780601f106107bc576101008083540402835291602001916107e5565b820191905f5260205f20905b8154815290600101906020018083116107c857829003601f168201915b505050505090806003015f9054906101000a900460ff16905084565b5f604051905090565b5f80fd5b5f80fd5b5f80fd5b5f80fd5b5f80fd5b5f8083601f84011261083357610832610812565b5b8235905067ffffffffffffffff8111156108505761084f610816565b5b60208301915083600182028301111561086c5761086b61081a565b5b9250929050565b5f819050919050565b61088581610873565b811461088f575f80fd5b50565b5f813590506108a08161087c565b92915050565b5f805f80606085870312156108be576108bd61080a565b5b5f85013567ffffffffffffffff8111156108db576108da61080e565b5b6108e78782880161081e565b945094505060206108fa87828801610892565b925050604061090b87828801610892565b91505092959194509250565b5f806020838503121561092d5761092c61080a565b5b5f83013567ffffffffffffffff81111561094a5761094961080e565b5b6109568582860161081e565b92509250509250929050565b5f80fd5b5f601f19601f8301169050919050565b7f4e487b71000000000000000000000000000000000000000000000000000000005f52604160045260245ffd5b6109ac82610966565b810181811067ffffffffffffffff821117156109cb576109ca610976565b5b80604052505050565b5f6109dd610801565b90506109e982826109a3565b919050565b5f67ffffffffffffffff821115610a0857610a07610976565b5b610a1182610966565b9050602081019050919050565b828183375f83830152505050565b5f610a3e610a39846109ee565b6109d4565b905082815260208101848484011115610a5a57610a59610962565b5b610a65848285610a1e565b509392505050565b5f82601f830112610a8157610a80610812565b5b8135610a91848260208601610a2c565b91505092915050565b5f60208284031215610aaf57610aae61080a565b5b5f82013567ffffffffffffffff811115610acc57610acb61080e565b5b610ad884828501610a6d565b91505092915050565b610aea81610873565b82525050565b5f602082019050610b035f830184610ae1565b92915050565b5f73ffffffffffffffffffffffffffffffffffffffff82169050919050565b5f610b3282610b09565b9050919050565b610b4281610b28565b82525050565b5f602082019050610b5b5f830184610b39565b92915050565b610b6a81610b28565b8114610b74575f80fd5b50565b5f81359050610b8581610b61565b92915050565b5f60208284031215610ba057610b9f61080a565b5b5f610bad84828501610b77565b91505092915050565b5f8115159050919050565b610bca81610bb6565b82525050565b5f602082019050610be35f830184610bc1565b92915050565b5f81519050919050565b5f82825260208201905092915050565b5f5b83811015610c20578082015181840152602081019050610c05565b5f8484015250505050565b5f610c3582610be9565b610c3f8185610bf3565b9350610c4f818560208601610c03565b610c5881610966565b840191505092915050565b5f608082019050610c765f830187610ae1565b610c836020830186610ae1565b8181036040830152610c958185610c2b565b9050610ca46060830184610bc1565b95945050505050565b7f4c6f6769633a206e6f74206f776e6572000000000000000000000000000000005f82015250565b5f610ce1601083610bf3565b9150610cec82610cad565b602082019050919050565b5f6020820190508181035f830152610d0e81610cd5565b9050919050565b7f4c6f67696356313a20656d70747920706c616e206e616d6500000000000000005f82015250565b5f610d49601883610bf3565b9150610d5482610d15565b602082019050919050565b5f6020820190508181035f830152610d7681610d3d565b9050919050565b7f4c6f67696356313a207072696365206d757374206265203e20300000000000005f82015250565b5f610db1601a83610bf3565b9150610dbc82610d7d565b602082019050919050565b5f6020820190508181035f830152610dde81610da5565b9050919050565b7f4c6f67696356313a206475726174696f6e206d757374206265203e20300000005f82015250565b5f610e19601d83610bf3565b9150610e2482610de5565b602082019050919050565b5f6020820190508181035f830152610e4681610e0d565b9050919050565b5f81905092915050565b5f610e628385610e4d565b9350610e6f838584610a1e565b82840190509392505050565b5f610e87828486610e57565b91508190509392505050565b5f604082019050610ea65f830185610ae1565b610eb36020830184610ae1565b9392505050565b7f4c6f67696356313a20706c616e20646f6573206e6f74206578697374000000005f82015250565b5f610eee601c83610bf3565b9150610ef982610eba565b602082019050919050565b5f6020820190508181035f830152610f1b81610ee2565b9050919050565b7f4c6f67696356313a20696e636f72726563742045544820616d6f756e740000005f82015250565b5f610f56601d83610bf3565b9150610f6182610f22565b602082019050919050565b5f6020820190508181035f830152610f8381610f4a565b9050919050565b7f4e487b71000000000000000000000000000000000000000000000000000000005f52601160045260245ffd5b5f610fc182610873565b9150610fcc83610873565b9250828201905080821115610fe457610fe3610f8a565b5b92915050565b7f4e487b71000000000000000000000000000000000000000000000000000000005f52602260045260245ffd5b5f600282049050600182168061102e57607f821691505b60208210810361104157611040610fea565b5b50919050565b5f819050815f5260205f209050919050565b5f6020601f8301049050919050565b5f82821b905092915050565b5f600883026110a37fffffffffffffffffffffffffffffffffffffffffffffffffffffffffffffffff82611068565b6110ad8683611068565b95508019841693508086168417925050509392505050565b5f819050919050565b5f6110e86110e36110de84610873565b6110c5565b610873565b9050919050565b5f819050919050565b611101836110ce565b61111561110d826110ef565b848454611074565b825550505050565b5f90565b61112961111d565b6111348184846110f8565b505050565b5b818110156111575761114c5f82611121565b60018101905061113a565b5050565b601f82111561119c5761116d81611047565b61117684611059565b81016020851015611185578190505b61119961119185611059565b830182611139565b50505b505050565b5f82821c905092915050565b5f6111bc5f19846008026111a1565b1980831691505092915050565b5f6111d483836111ad565b9150826002028217905092915050565b6111ed82610be9565b67ffffffffffffffff81111561120657611205610976565b5b6112108254611017565b61121b82828561115b565b5f60209050601f83116001811461124c575f841561123a578287015190505b61124485826111c9565b8655506112ab565b601f19841661125a86611047565b5f5b828110156112815784890151825560018201915060208501945060208101905061125c565b8683101561129e578489015161129a601f8916826111ad565b8355505b6001600288020188555050505b505050505050565b5f6112be8385610bf3565b93506112cb838584610a1e565b6112d483610966565b840190509392505050565b5f6040820190508181035f8301526112f88185876112b3565b90506113076020830184610ae1565b94935050505056fea2646970667358221220ffd98e07a258fedf8ae200f3d83a19cba2c4136bb1fef6d1822b50bde0527ddf64736f6c63430008140033","linkReferences":{}},"methodIdentifiers":{"addPlan(string,uint256,uint256)":"4b601340","isActive(address)":"9f8a13d7","logicContract()":"cc0e97c9","owner()":"8da5cb5b","planDuration(string)":"e1c143ac","planPrices(string)":"669469d1","subscribe(string)":"507e7888","subscriptions(address)":"f046395a"},"id":0}