{"abi":[{"type":"constructor","inputs":[{"name":"_logicContract","type":"address","internalType":"address"}],"stateMutability":"nonpayable"},{"type":"fallback","stateMutability":"payable"},{"type":"receive","stateMutability":"payable"},{"type":"function","name":"logicContract","inputs":[],"outputs":[{"name":"","type":"address","internalType":"address"}],"stateMutability":"view"},{"type":"function","name":"owner","inputs":[],"outputs":[{"name":"","type":"address","internalType":"address"}],"stateMutability":"view"},{"type":"function","name":"planDuration","inputs":[{"name":"","type":"string","internalType":"string"}],"outputs":[{"name":"","type":"uint256","internalType":"uint256"}],"stateMutability":"view"},{"type":"function","name":"planPrices","inputs":[{"name":"","type":"string","internalType":"string"}],"outputs":[{"name":"","type":"uint256","internalType":"uint256"}],"stateMutability":"view"},{"type":"function","name":"subscriptions","inputs":[{"name":"","type":"address","internalType":"address"}],"outputs":[{"name":"startTime","type":"uint256","internalType":"uint256"},{"name":"endTime","type":"uint256","internalType":"uint256"},{"name":"plan","type":"string","internalType":"string"},{"name":"paused","type":"bool","internalType":"bool"}],"stateMutability":"view"},{"type":"function","name":"upgradeTo","inputs":[{"name":"_newLogic","type":"address","internalType":"address"}],"outputs":[],"stateMutability":"nonpayable"},{"type":"event","name":"Upgraded","inputs":[{"name":"previousLogic","type":"address","indexed":true,"internalType":"address"},{"name":"newLogic","type":"address","indexed":true,"internalType":"address"}],"anonymous":false}],"bytecode":{"object":"0x608060405234801562000010575f80fd5b5060405162000d1e38038062000d1e8339818101604052810190620000369190620001ec565b5f73ffffffffffffffffffffffffffffffffffffffff168173ffffffffffffffffffffffffffffffffffffffff1603620000a7576040517f08c379a00000000000000000000000000000000000000000000000000000000081526004016200009e906200027a565b60405180910390fd5b3360015f6101000a81548173ffffffffffffffffffffffffffffffffffffffff021916908373ffffffffffffffffffffffffffffffffffffffff160217905550805f806101000a81548173ffffffffffffffffffffffffffffffffffffffff021916908373ffffffffffffffffffffffffffffffffffffffff1602179055508073ffffffffffffffffffffffffffffffffffffffff165f73ffffffffffffffffffffffffffffffffffffffff167f5d611f318680d00598bb735d61bacf0c514c6b50e1e5ad30040a4df2b12791c760405160405180910390a3506200029a565b5f80fd5b5f73ffffffffffffffffffffffffffffffffffffffff82169050919050565b5f620001b6826200018b565b9050919050565b620001c881620001aa565b8114620001d3575f80fd5b50565b5f81519050620001e681620001bd565b92915050565b5f6020828403121562000204576200020362000187565b5b5f6200021384828501620001d6565b91505092915050565b5f82825260208201905092915050565b7f50726f78793a207a65726f2061646472657373000000000000000000000000005f82015250565b5f620002626013836200021c565b91506200026f826200022c565b602082019050919050565b5f6020820190508181035f830152620002938162000254565b9050919050565b610a7680620002a85f395ff3fe608060405260043610610058575f3560e01c80633659cfe614610110578063669469d1146101385780638da5cb5b14610174578063cc0e97c91461019e578063e1c143ac146101c8578063f046395a146102045761005f565b3661005f57005b5f805f9054906101000a900473ffffffffffffffffffffffffffffffffffffffff1690505f73ffffffffffffffffffffffffffffffffffffffff168173ffffffffffffffffffffffffffffffffffffffff16036100f1576040517f08c379a00000000000000000000000000000000000000000000000000000000081526004016100e8906105b5565b60405180910390fd5b365f80375f80365f845af43d5f803e805f811461010c573d5ff35b3d5ffd5b34801561011b575f80fd5b506101366004803603810190610131919061063e565b610243565b005b348015610143575f80fd5b5061015e600480360381019061015991906107a5565b6103fb565b60405161016b9190610804565b60405180910390f35b34801561017f575f80fd5b50610188610428565b604051610195919061082c565b60405180910390f35b3480156101a9575f80fd5b506101b261044d565b6040516101bf919061082c565b60405180910390f35b3480156101d3575f80fd5b506101ee60048036038101906101e991906107a5565b610470565b6040516101fb9190610804565b60405180910390f35b34801561020f575f80fd5b5061022a6004803603810190610225919061063e565b61049d565b60405161023a94939291906108c9565b60405180910390f35b60015f9054906101000a900473ffffffffffffffffffffffffffffffffffffffff1673ffffffffffffffffffffffffffffffffffffffff163373ffffffffffffffffffffffffffffffffffffffff16146102d2576040517f08c379a00000000000000000000000000000000000000000000000000000000081526004016102c99061095d565b60405180910390fd5b5f73ffffffffffffffffffffffffffffffffffffffff168173ffffffffffffffffffffffffffffffffffffffff1603610340576040517f08c379a0000000000000000000000000000000000000000000000000000000008152600401610337906109c5565b60405180910390fd5b8073ffffffffffffffffffffffffffffffffffffffff165f8054906101000a900473ffffffffffffffffffffffffffffffffffffffff1673ffffffffffffffffffffffffffffffffffffffff167f5d611f318680d00598bb735d61bacf0c514c6b50e1e5ad30040a4df2b12791c760405160405180910390a3805f806101000a81548173ffffffffffffffffffffffffffffffffffffffff021916908373ffffffffffffffffffffffffffffffffffffffff16021790555050565b6003818051602081018201805184825260208301602085012081835280955050505050505f915090505481565b60015f9054906101000a900473ffffffffffffffffffffffffffffffffffffffff1681565b5f8054906101000a900473ffffffffffffffffffffffffffffffffffffffff1681565b6004818051602081018201805184825260208301602085012081835280955050505050505f915090505481565b6002602052805f5260405f205f91509050805f0154908060010154908060020180546104c890610a10565b80601f01602080910402602001604051908101604052809291908181526020018280546104f490610a10565b801561053f5780601f106105165761010080835404028352916020019161053f565b820191905f5260205f20905b81548152906001019060200180831161052257829003601f168201915b505050505090806003015f9054906101000a900460ff16905084565b5f82825260208201905092915050565b7f50726f78793a206e6f206c6f67696320736574000000000000000000000000005f82015250565b5f61059f60138361055b565b91506105aa8261056b565b602082019050919050565b5f6020820190508181035f8301526105cc81610593565b9050919050565b5f604051905090565b5f80fd5b5f80fd5b5f73ffffffffffffffffffffffffffffffffffffffff82169050919050565b5f61060d826105e4565b9050919050565b61061d81610603565b8114610627575f80fd5b50565b5f8135905061063881610614565b92915050565b5f60208284031215610653576106526105dc565b5b5f6106608482850161062a565b91505092915050565b5f80fd5b5f80fd5b5f601f19601f8301169050919050565b7f4e487b71000000000000000000000000000000000000000000000000000000005f52604160045260245ffd5b6106b782610671565b810181811067ffffffffffffffff821117156106d6576106d5610681565b5b80604052505050565b5f6106e86105d3565b90506106f482826106ae565b919050565b5f67ffffffffffffffff82111561071357610712610681565b5b61071c82610671565b9050602081019050919050565b828183375f83830152505050565b5f610749610744846106f9565b6106df565b9050828152602081018484840111156107655761076461066d565b5b610770848285610729565b509392505050565b5f82601f83011261078c5761078b610669565b5b813561079c848260208601610737565b91505092915050565b5f602082840312156107ba576107b96105dc565b5b5f82013567ffffffffffffffff8111156107d7576107d66105e0565b5b6107e384828501610778565b91505092915050565b5f819050919050565b6107fe816107ec565b82525050565b5f6020820190506108175f8301846107f5565b92915050565b61082681610603565b82525050565b5f60208201905061083f5f83018461081d565b92915050565b5f81519050919050565b5f5b8381101561086c578082015181840152602081019050610851565b5f8484015250505050565b5f61088182610845565b61088b818561055b565b935061089b81856020860161084f565b6108a481610671565b840191505092915050565b5f8115159050919050565b6108c3816108af565b82525050565b5f6080820190506108dc5f8301876107f5565b6108e960208301866107f5565b81810360408301526108fb8185610877565b905061090a60608301846108ba565b95945050505050565b7f50726f78793a206e6f74206f776e6572000000000000000000000000000000005f82015250565b5f61094760108361055b565b915061095282610913565b602082019050919050565b5f6020820190508181035f8301526109748161093b565b9050919050565b7f50726f78793a207a65726f2061646472657373000000000000000000000000005f82015250565b5f6109af60138361055b565b91506109ba8261097b565b602082019050919050565b5f6020820190508181035f8301526109dc816109a3565b9050919050565b7f4e487b71000000000000000000000000000000000000000000000000000000005f52602260045260245ffd5b5f6002820490506001821680610a2757607f821691505b602082108103610a3a57610a396109e3565b5b5091905056fea2646970667358221220535d3bd9c0ce010c7d58ebe95dbbdbbc3e17c2b940640a4f359f70fcee363db364736f6c63430008140033","linkReferences":{}},"methodIdentifiers":{"logicContract()":"cc0e97c9","owner()":"8da5cb5b","planDuration(string)":"e1c143ac","planPrices(string)":"669469d1","subscriptions(address)":"f046395a","upgradeTo(address)":"3659cfe6"},"id":2}