{"abi":[{"type":"constructor","inputs":[{"name":"_owner","type":"address","internalType":"address"}],"stateMutability":"nonpayable"},{"type":"receive","stateMutability":"payable"},{"type":"function","name":"BPS_PRECISION","inputs":[],"outputs":[{"name":"","type":"uint256","internalType":"uint256"}],"stateMutability":"view"},{"type":"function","name":"MARKETPLACE_FEE_BPS","inputs":[],"outputs":[{"name":"","type":"uint256","internalType":"uint256"}],"stateMutability":"view"},{"type":"function","name":"buyItem","inputs":[{"name":"nftContract","type":"address","internalType":"address"},{"name":"tokenId","type":"uint256","internalType":"uint256"}],"outputs":[],"stateMutability":"payable"},{"type":"function","name":"calculateFee","inputs":[{"name":"price","type":"uint256","internalType":"uint256"}],"outputs":[{"name":"fee","type":"uint256","internalType":"uint256"},{"name":"sellerNet","type":"uint256","internalType":"uint256"}],"stateMutability":"pure"},{"type":"function","name":"cancelListing","inputs":[{"name":"nftContract","type":"address","internalType":"address"},{"name":"tokenId","type":"uint256","internalType":"uint256"}],"outputs":[],"stateMutability":"nonpayable"},{"type":"function","name":"feeBalance","inputs":[],"outputs":[{"name":"","type":"uint256","internalType":"uint256"}],"stateMutability":"view"},{"type":"function","name":"getListing","inputs":[{"name":"nftContract","type":"address","internalType":"address"},{"name":"tokenId","type":"uint256","internalType":"uint256"}],"outputs":[{"name":"","type":"tuple","internalType":"struct NFTMarketplace.Listing","components":[{"name":"seller","type":"address","internalType":"address"},{"name":"price","type":"uint256","internalType":"uint256"}]}],"stateMutability":"view"},{"type":"function","name":"isItemListed","inputs":[{"name":"nftContract","type":"address","internalType":"address"},{"name":"tokenId","type":"uint256","internalType":"uint256"}],"outputs":[{"name":"","type":"bool","internalType":"bool"}],"stateMutability":"view"},{"type":"function","name":"listItem","inputs":[{"name":"nftContract","type":"address","internalType":"address"},{"name":"tokenId","type":"uint256","internalType":"uint256"},{"name":"price","type":"uint256","internalType":"uint256"}],"outputs":[],"stateMutability":"nonpayable"},{"type":"function","name":"listings","inputs":[{"name":"","type":"address","internalType":"address"},{"name":"","type":"uint256","internalType":"uint256"}],"outputs":[{"name":"seller","type":"address","internalType":"address"},{"name":"price","type":"uint256","internalType":"uint256"}],"stateMutability":"view"},{"type":"function","name":"owner","inputs":[],"outputs":[{"name":"","type":"address","internalType":"address"}],"stateMutability":"view"},{"type":"function","name":"renounceOwnership","inputs":[],"outputs":[],"stateMutability":"nonpayable"},{"type":"function","name":"transferOwnership","inputs":[{"name":"newOwner","type":"address","internalType":"address"}],"outputs":[],"stateMutability":"nonpayable"},{"type":"function","name":"updateListing","inputs":[{"name":"nftContract","type":"address","internalType":"address"},{"name":"tokenId","type":"uint256","internalType":"uint256"},{"name":"newPrice","type":"uint256","internalType":"uint256"}],"outputs":[],"stateMutability":"nonpayable"},{"type":"function","name":"withdrawFees","inputs":[],"outputs":[],"stateMutability":"nonpayable"},{"type":"event","name":"FeesWithdrawn","inputs":[{"name":"owner","type":"address","indexed":true,"internalType":"address"},{"name":"amount","type":"uint256","indexed":false,"internalType":"uint256"}],"anonymous":false},{"type":"event","name":"ItemCancelled","inputs":[{"name":"nftContract","type":"address","indexed":true,"internalType":"address"},{"name":"tokenId","type":"uint256","indexed":true,"internalType":"uint256"},{"name":"seller","type":"address","indexed":true,"internalType":"address"}],"anonymous":false},{"type":"event","name":"ItemListed","inputs":[{"name":"nftContract","type":"address","indexed":true,"internalType":"address"},{"name":"tokenId","type":"uint256","indexed":true,"internalType":"uint256"},{"name":"seller","type":"address","indexed":true,"internalType":"address"},{"name":"price","type":"uint256","indexed":false,"internalType":"uint256"}],"anonymous":false},{"type":"event","name":"ItemSold","inputs":[{"name":"nftContract","type":"address","indexed":true,"internalType":"address"},{"name":"tokenId","type":"uint256","indexed":true,"internalType":"uint256"},{"name":"buyer","type":"address","indexed":true,"internalType":"address"},{"name":"seller","type":"address","indexed":false,"internalType":"address"},{"name":"price","type":"uint256","indexed":false,"internalType":"uint256"},{"name":"fee","type":"uint256","indexed":false,"internalType":"uint256"},{"name":"sellerProceeds","type":"uint256","indexed":false,"internalType":"uint256"}],"anonymous":false},{"type":"event","name":"ItemUpdated","inputs":[{"name":"nftContract","type":"address","indexed":true,"internalType":"address"},{"name":"tokenId","type":"uint256","indexed":true,"internalType":"uint256"},{"name":"seller","type":"address","indexed":true,"internalType":"address"},{"name":"newPrice","type":"uint256","indexed":false,"internalType":"uint256"}],"anonymous":false},{"type":"event","name":"OwnershipTransferred","inputs":[{"name":"previousOwner","type":"address","indexed":true,"internalType":"address"},{"name":"newOwner","type":"address","indexed":true,"internalType":"address"}],"anonymous":false},{"type":"error","name":"AlreadyListed","inputs":[]},{"type":"error","name":"CannotBuyOwnItem","inputs":[]},{"type":"error","name":"ETHTransferFailed","inputs":[]},{"type":"error","name":"InsufficientPayment","inputs":[]},{"type":"error","name":"NoFeesToWithdraw","inputs":[]},{"type":"error","name":"NotApproved","inputs":[]},{"type":"error","name":"NotListed","inputs":[]},{"type":"error","name":"NotOwnerOfToken","inputs":[]},{"type":"error","name":"NotSeller","inputs":[]},{"type":"error","name":"OwnableInvalidOwner","inputs":[{"name":"owner","type":"address","internalType":"address"}]},{"type":"error","name":"OwnableUnauthorizedAccount","inputs":[{"name":"account","type":"address","internalType":"address"}]},{"type":"error","name":"ReentrancyGuardReentrantCall","inputs":[]},{"type":"error","name":"ZeroPrice","inputs":[]}],"bytecode":{"object":"0x6080346100e157601f610cdb38819003918201601f19168301916001600160401b038311848410176100e5578084926020946040528339810103126100e157516001600160a01b038116908190036100e15760017f9b779b17422d0df92223018b32b4d1fa46e071723d6817e2486d003becc55f005580156100ce575f80546001600160a01b031981168317825560405192916001600160a01b03909116907f8be0079c531659141344cd1fd0a4f28419497f9722a3daafe3b4186f6b6457e09080a3610be190816100fa8239f35b631e4fbdf760e01b5f525f60045260245ffd5b5f80fd5b634e487b7160e01b5f52604160045260245ffdfe608080604052600436101561001c575b50361561001a575f80fd5b005b5f905f3560e01c90816207df30146109de5750806302806eb014610995578063465de68b1461097a578063476343ee146108c557806360b71d4e146108a8578063715018a61461085157806388700d1c146107d157806389bfd38f1461058f5780638da5cb5b1461056857806399a5d747146105245780639f37092a14610306578063b2ddee0614610235578063e41de31314610218578063f2fde38b146101925763f772adf10361000f573461018f576100d636610a46565b6001600160a01b03909216808452600160208181526040808720858852909152852001541561018057821561017157808452600160209081526040808620848752909152842080546001600160a01b03163303610162576001849101556040519283527f1d505b9c03351bb41a2b7b3b7de3c464989a83a663264cb6dc34ea9c14feb8bb60203394a480f35b635ec8235160e01b8552600485fd5b634dfba02360e01b8452600484fd5b63665c1c5760e01b8452600484fd5b80fd5b503461018f57602036600319011261018f576101ac610a30565b6101b4610b2d565b6001600160a01b031680156102045781546001600160a01b03198116821783556001600160a01b03167f8be0079c531659141344cd1fd0a4f28419497f9722a3daafe3b4186f6b6457e08380a380f35b631e4fbdf760e01b82526004829052602482fd5b503461018f578060031936011261018f5760206040516127108152f35b503461018f57604036600319011261018f5761024f610a30565b6001600160a01b03168082526001602081815260408085206024358087529252842090910154156102f7578183526001602090815260408085208386529091528320546001600160a01b031633036102e85781835260016020526040832081845260205282600160408220828155015533917fae853d44a3ea3a7fbfb13f965e42d1b6be86290588f4f7e8e496111152e8ecb48480a480f35b635ec8235160e01b8352600483fd5b63665c1c5760e01b8352600483fd5b5060403660031901126104df5761031b610a30565b60243590610327610b53565b60018060a01b031690815f52600160205260405f20815f52602052600160405f2001541561051557815f52600160205260405f20815f5260205260405f209160405161037281610a70565b83546001600160a01b03168082526001909401546020820190815293331461050657835134106104f757815f52600160205260405f20835f526020525f6001604082208281550155835160fa81029080820460fa14901517156104e35761271090046103df818651610b20565b916002548281018091116104e35760025580516001600160a01b0316843b156104df5760405190632142170760e11b825260048201523360248201528560448201525f8160648183895af180156104d4576104bf575b50868080808660018060a01b038651165af161044f610ac2565b50156104b05760018060a01b0390511694516040519586526020860152604085015260608401527f5478ad3f04f76c56cdccdbf76c58bc9a46a20205d5264da270a05e23ca683ac060803394a460015f80516020610b8c8339815191525580f35b63b12d13eb60e01b8752600487fd5b6104cc9197505f90610aa0565b5f955f610435565b6040513d5f823e3d90fd5b5f80fd5b634e487b7160e01b5f52601160045260245ffd5b63cd1c886760e01b5f5260045ffd5b6302922dbf60e61b5f5260045ffd5b63665c1c5760e01b5f5260045ffd5b346104df5760203660031901126104df5760043560fa81029080820460fa14811517156104e35761055c612710604093048092610b20565b82519182526020820152f35b346104df575f3660031901126104df575f546040516001600160a01b039091168152602090f35b346104df5761059d36610a46565b9182156107c2576040516331a9108f60e11b8152600481018390526001600160a01b039190911690602081602481855afa9081156104d4575f916107a3575b50336001600160a01b039091160361079457805f52600160205260405f20825f52602052600160405f2001546107855760405163020604bf60e21b815260048101839052602081602481855afa9081156104d4575f91610756575b5060405163e985e9c560e01b815233600482015230602482015290602082604481865afa9182156104d4575f92610719575b506001600160a01b03163014159081610710575b506107015760405161068e81610a70565b338152600160208201858152835f528160205260405f20855f5260205260405f2092828060a01b039051166bffffffffffffffffffffffff60a01b845416178355519101556040519283527fb29a3c5d9c9eb8230bd277c54293a0a15e98cd5592a3e0d470fe9ce59fed54f160203394a4005b63c19f17a960e01b5f5260045ffd5b9050158461067d565b9091506020813d60201161074e575b8161073560209383610aa0565b810103126104df575180151581036104df579085610669565b3d9150610728565b610778915060203d60201161077e575b6107708183610aa0565b810190610b01565b84610637565b503d610766565b6328f560bb60e21b5f5260045ffd5b63130213c560e21b5f5260045ffd5b6107bc915060203d60201161077e576107708183610aa0565b846105dc565b634dfba02360e01b5f5260045ffd5b346104df5760403660031901126104df576107ea610a30565b5f60206040516107f981610a70565b828152015260018060a01b03165f52600160205260405f206024355f526020526040805f20815161082981610a70565b81546001600160a01b0316808252600190920154602091820190815283519283525190820152f35b346104df575f3660031901126104df57610869610b2d565b5f80546001600160a01b0319811682556001600160a01b03167f8be0079c531659141344cd1fd0a4f28419497f9722a3daafe3b4186f6b6457e08280a3005b346104df575f3660031901126104df576020600254604051908152f35b346104df575f3660031901126104df576108dd610b2d565b6108e5610b53565b600254801561096b575f6002555f8080808460018060a01b038254165af161090b610ac2565b501561095c575f546040519182526001600160a01b0316907fc0819c13be868895eb93e40eaceb96de976442fa1d404e5c55f14bb65a8c489a90602090a260015f80516020610b8c83398151915255005b63b12d13eb60e01b5f5260045ffd5b630d00db4d60e31b5f5260045ffd5b346104df575f3660031901126104df57602060405160fa8152f35b346104df5760403660031901126104df576001600160a01b036109b6610a30565b165f52600160205260405f206024355f526020526020600160405f2001541515604051908152f35b346104df5760403660031901126104df576040906001600160a01b03610a02610a30565b165f526001602052815f206024355f52602052815f206001808060a01b038254169101549082526020820152f35b600435906001600160a01b03821682036104df57565b60609060031901126104df576004356001600160a01b03811681036104df57906024359060443590565b6040810190811067ffffffffffffffff821117610a8c57604052565b634e487b7160e01b5f52604160045260245ffd5b90601f8019910116810190811067ffffffffffffffff821117610a8c57604052565b3d15610afc573d9067ffffffffffffffff8211610a8c5760405191610af1601f8201601f191660200184610aa0565b82523d5f602084013e565b606090565b908160209103126104df57516001600160a01b03811681036104df5790565b919082039182116104e357565b5f546001600160a01b03163303610b4057565b63118cdaa760e01b5f523360045260245ffd5b60025f80516020610b8c8339815191525414610b7c5760025f80516020610b8c83398151915255565b633ee5aeb560e01b5f5260045ffdfe9b779b17422d0df92223018b32b4d1fa46e071723d6817e2486d003becc55f00a2646970667358221220d5e6b06dbe7cab737252b57bede097ff61dc568d572f291bbca6f89dcf7b72b464736f6c634300081a0033","linkReferences":{}},"methodIdentifiers":{"BPS_PRECISION()":"e41de313","MARKETPLACE_FEE_BPS()":"465de68b","buyItem(address,uint256)":"9f37092a","calculateFee(uint256)":"99a5d747","cancelListing(address,uint256)":"b2ddee06","feeBalance()":"60b71d4e","getListing(address,uint256)":"88700d1c","isItemListed(address,uint256)":"02806eb0","listItem(address,uint256,uint256)":"89bfd38f","listings(address,uint256)":"0007df30","owner()":"8da5cb5b","renounceOwnership()":"715018a6","transferOwnership(address)":"f2fde38b","updateListing(address,uint256,uint256)":"f772adf1","withdrawFees()":"476343ee"},"id":0}