{"abi":[{"type":"constructor","inputs":[{"name":"_asset","type":"address","internalType":"address"},{"name":"_owner","type":"address","internalType":"address"}],"stateMutability":"nonpayable"},{"type":"function","name":"ANNUAL_INTEREST_BPS","inputs":[],"outputs":[{"name":"","type":"uint256","internalType":"uint256"}],"stateMutability":"view"},{"type":"function","name":"BPS_PRECISION","inputs":[],"outputs":[{"name":"","type":"uint256","internalType":"uint256"}],"stateMutability":"view"},{"type":"function","name":"LTV_BPS","inputs":[],"outputs":[{"name":"","type":"uint256","internalType":"uint256"}],"stateMutability":"view"},{"type":"function","name":"SECONDS_PER_YEAR","inputs":[],"outputs":[{"name":"","type":"uint256","internalType":"uint256"}],"stateMutability":"view"},{"type":"function","name":"addLiquidity","inputs":[{"name":"amount","type":"uint256","internalType":"uint256"}],"outputs":[],"stateMutability":"nonpayable"},{"type":"function","name":"asset","inputs":[],"outputs":[{"name":"","type":"address","internalType":"contract IERC20"}],"stateMutability":"view"},{"type":"function","name":"borrow","inputs":[{"name":"amount","type":"uint256","internalType":"uint256"}],"outputs":[],"stateMutability":"nonpayable"},{"type":"function","name":"borrowBalance","inputs":[{"name":"","type":"address","internalType":"address"}],"outputs":[{"name":"","type":"uint256","internalType":"uint256"}],"stateMutability":"view"},{"type":"function","name":"calculateInterestAccrued","inputs":[{"name":"user","type":"address","internalType":"address"}],"outputs":[{"name":"accruedInterest","type":"uint256","internalType":"uint256"}],"stateMutability":"view"},{"type":"function","name":"collateralBalance","inputs":[{"name":"","type":"address","internalType":"address"}],"outputs":[{"name":"","type":"uint256","internalType":"uint256"}],"stateMutability":"view"},{"type":"function","name":"depositCollateral","inputs":[{"name":"amount","type":"uint256","internalType":"uint256"}],"outputs":[],"stateMutability":"nonpayable"},{"type":"function","name":"emergencyWithdraw","inputs":[{"name":"amount","type":"uint256","internalType":"uint256"}],"outputs":[],"stateMutability":"nonpayable"},{"type":"function","name":"getMaxBorrow","inputs":[{"name":"user","type":"address","internalType":"address"}],"outputs":[{"name":"","type":"uint256","internalType":"uint256"}],"stateMutability":"view"},{"type":"function","name":"getPosition","inputs":[{"name":"user","type":"address","internalType":"address"}],"outputs":[{"name":"collateral","type":"uint256","internalType":"uint256"},{"name":"debt","type":"uint256","internalType":"uint256"},{"name":"interestAccrued","type":"uint256","internalType":"uint256"},{"name":"maxBorrowable","type":"uint256","internalType":"uint256"},{"name":"lastAccrual","type":"uint256","internalType":"uint256"}],"stateMutability":"view"},{"type":"function","name":"getTotalDebt","inputs":[{"name":"user","type":"address","internalType":"address"}],"outputs":[{"name":"","type":"uint256","internalType":"uint256"}],"stateMutability":"view"},{"type":"function","name":"lastInterestAccrualTimestamp","inputs":[{"name":"","type":"address","internalType":"address"}],"outputs":[{"name":"","type":"uint256","internalType":"uint256"}],"stateMutability":"view"},{"type":"function","name":"owner","inputs":[],"outputs":[{"name":"","type":"address","internalType":"address"}],"stateMutability":"view"},{"type":"function","name":"removeLiquidity","inputs":[{"name":"amount","type":"uint256","internalType":"uint256"}],"outputs":[],"stateMutability":"nonpayable"},{"type":"function","name":"renounceOwnership","inputs":[],"outputs":[],"stateMutability":"nonpayable"},{"type":"function","name":"repay","inputs":[{"name":"amount","type":"uint256","internalType":"uint256"}],"outputs":[],"stateMutability":"nonpayable"},{"type":"function","name":"totalPoolLiquidity","inputs":[],"outputs":[{"name":"","type":"uint256","internalType":"uint256"}],"stateMutability":"view"},{"type":"function","name":"transferOwnership","inputs":[{"name":"newOwner","type":"address","internalType":"address"}],"outputs":[],"stateMutability":"nonpayable"},{"type":"function","name":"withdrawCollateral","inputs":[{"name":"amount","type":"uint256","internalType":"uint256"}],"outputs":[],"stateMutability":"nonpayable"},{"type":"event","name":"Borrowed","inputs":[{"name":"user","type":"address","indexed":true,"internalType":"address"},{"name":"amount","type":"uint256","indexed":false,"internalType":"uint256"}],"anonymous":false},{"type":"event","name":"CollateralDeposited","inputs":[{"name":"user","type":"address","indexed":true,"internalType":"address"},{"name":"amount","type":"uint256","indexed":false,"internalType":"uint256"}],"anonymous":false},{"type":"event","name":"CollateralWithdrawn","inputs":[{"name":"user","type":"address","indexed":true,"internalType":"address"},{"name":"amount","type":"uint256","indexed":false,"internalType":"uint256"}],"anonymous":false},{"type":"event","name":"LiquidityAdded","inputs":[{"name":"provider","type":"address","indexed":true,"internalType":"address"},{"name":"amount","type":"uint256","indexed":false,"internalType":"uint256"}],"anonymous":false},{"type":"event","name":"LiquidityRemoved","inputs":[{"name":"provider","type":"address","indexed":true,"internalType":"address"},{"name":"amount","type":"uint256","indexed":false,"internalType":"uint256"}],"anonymous":false},{"type":"event","name":"OwnershipTransferred","inputs":[{"name":"previousOwner","type":"address","indexed":true,"internalType":"address"},{"name":"newOwner","type":"address","indexed":true,"internalType":"address"}],"anonymous":false},{"type":"event","name":"Repaid","inputs":[{"name":"user","type":"address","indexed":true,"internalType":"address"},{"name":"principal","type":"uint256","indexed":false,"internalType":"uint256"},{"name":"interest","type":"uint256","indexed":false,"internalType":"uint256"},{"name":"total","type":"uint256","indexed":false,"internalType":"uint256"}],"anonymous":false},{"type":"error","name":"CollateralStillLocked","inputs":[]},{"type":"error","name":"ExceedsLTV","inputs":[]},{"type":"error","name":"InsufficientCollateral","inputs":[]},{"type":"error","name":"InsufficientPoolLiquidity","inputs":[]},{"type":"error","name":"InsufficientRepayAmount","inputs":[]},{"type":"error","name":"NoBorrowOutstanding","inputs":[]},{"type":"error","name":"OwnableInvalidOwner","inputs":[{"name":"owner","type":"address","internalType":"address"}]},{"type":"error","name":"OwnableUnauthorizedAccount","inputs":[{"name":"account","type":"address","internalType":"address"}]},{"type":"error","name":"ReentrancyGuardReentrantCall","inputs":[]},{"type":"error","name":"SafeERC20FailedOperation","inputs":[{"name":"token","type":"address","internalType":"address"}]},{"type":"error","name":"ZeroAmount","inputs":[]}],"bytecode":{"object":"0x60a03461018957601f610eec38819003918201601f19168301916001600160401b0383118484101761018d57808492604094855283398101031261018957610052602061004b836101a1565b92016101a1565b60017f9b779b17422d0df92223018b32b4d1fa46e071723d6817e2486d003becc55f00556001600160a01b0316908115610176575f80546001600160a01b031981168417825560405193916001600160a01b03909116907f8be0079c531659141344cd1fd0a4f28419497f9722a3daafe3b4186f6b6457e09080a36001600160a01b031690811561012a5750608052604051610d3690816101b682396080518181816103810152818161045401528181610557015281816106d301528181610776015281816107d50152818161090b01526109e70152f35b62461bcd60e51b815260206004820152602160248201527f53696d706c654c656e64696e673a207a65726f206173736574206164647265736044820152607360f81b6064820152608490fd5b631e4fbdf760e01b5f525f60045260245ffd5b5f80fd5b634e487b7160e01b5f52604160045260245ffd5b51906001600160a01b03821682036101895756fe60806040526004361015610011575f80fd5b5f3560e01c806316c1973914610a78578063371fd8e61461093a57806338d52e0f146108f6578063481bd6af146108ba5780634d44ac4f146108745780634d73e9ba1461083857806351c6590a1461079c5780635312ea8e146107545780636112fe2e14610638578063715018a6146105e15780638da5cb5b146105ba5780639c8f9f231461050f578063a1bf2840146104d3578063b5f397e7146104b7578063bad4a01f14610411578063c5ebeaec146102b7578063d6f769d814610280578063e41de31314610264578063e6a69ab814610246578063e8f0033114610229578063f2fde38b146101a0578063fae3706f146101845763fd1c317a14610116575f80fd5b34610180576020366003190112610180576004356001600160a01b03811690819003610180575f52600160205260405f2054611d4c810290808204611d4c149015171561016c5760209061271060405191048152f35b634e487b7160e01b5f52601160045260245ffd5b5f80fd5b34610180575f366003190112610180576020604051611d4c8152f35b34610180576020366003190112610180576004356001600160a01b03811690819003610180576101ce610c62565b8015610216575f80546001600160a01b03198116831782556001600160a01b0316907f8be0079c531659141344cd1fd0a4f28419497f9722a3daafe3b4186f6b6457e09080a3005b631e4fbdf760e01b5f525f60045260245ffd5b34610180575f366003190112610180576020600454604051908152f35b34610180575f3660031901126101805760206040516301e133808152f35b34610180575f3660031901126101805760206040516127108152f35b34610180576020366003190112610180576004356001600160a01b0381168103610180576102af602091610b22565b604051908152f35b34610180576020366003190112610180576004356102d3610b98565b8015610402576102e233610b22565b335f526002602052610301826102fc8360405f2054610b08565b610b08565b335f52600160205260405f2054611d4c810290808204611d4c149015171561016c576127109004106103f35760045482116103e457816102fc61035092335f52600260205260405f2054610b08565b335f52600260205260405f2055335f5260036020524260405f205561037781600454610b15565b6004556103a581337f0000000000000000000000000000000000000000000000000000000000000000610c88565b6040519081527fac59582e5396aca512fa873a2047e7f4c80f8f55d4a06cb34a78a0187f62719f60203392a260015f80516020610ce183398151915255005b636bb2792960e01b5f5260045ffd5b6364271c5760e11b5f5260045ffd5b631f2a200560e01b5f5260045ffd5b346101805760203660031901126101805760043561042d610b98565b801561040257335f52600160205260405f2061044a828254610b08565b90556104788130337f0000000000000000000000000000000000000000000000000000000000000000610bd0565b6040519081527fd7243f6f8212d5188fd054141cf6ea89cfc0d91facb8c3afe2f88a135848014260203392a260015f80516020610ce183398151915255005b34610180575f3660031901126101805760206040516101f48152f35b34610180576020366003190112610180576004356001600160a01b03811690819003610180575f526001602052602060405f2054604051908152f35b346101805760203660031901126101805760043561052b610c62565b610533610b98565b8015610402576004548082116103e4578161054d91610b15565b60045561057b81337f0000000000000000000000000000000000000000000000000000000000000000610c88565b6040519081527fc2c3f06e49b9f15e7b4af9055e183b0d73362e033ad82a07dec9bf984017171960203392a260015f80516020610ce183398151915255005b34610180575f366003190112610180575f546040516001600160a01b039091168152602090f35b34610180575f366003190112610180576105f9610c62565b5f80546001600160a01b0319811682556001600160a01b03167f8be0079c531659141344cd1fd0a4f28419497f9722a3daafe3b4186f6b6457e08280a3005b3461018057602036600319011261018057600435610654610b98565b801561040257335f52600160205260405f2054811161074557335f52600260205260405f205461073657335f5260016020526106948160405f2054610b15565b611d4c8102818104611d4c148215171561016c5761271090335f5260026020520460405f2054116103f357335f52600160205260405f20556106f781337f0000000000000000000000000000000000000000000000000000000000000000610c88565b6040519081527fc30fcfbcaac9e0deffa719714eaa82396ff506a0d0d0eebe170830177288715d60203392a260015f80516020610ce183398151915255005b63095d7bef60e41b5f5260045ffd5b633a23d82560e01b5f5260045ffd5b346101805760203660031901126101805761076d610c62565b61079a600435337f0000000000000000000000000000000000000000000000000000000000000000610c88565b005b34610180576020366003190112610180576004356107b8610b98565b8015610402576107ca81600454610b08565b6004556107f98130337f0000000000000000000000000000000000000000000000000000000000000000610bd0565b6040519081527fc17cea59c2955cb181b03393209566960365771dbba9dc3d510180e7cb31208860203392a260015f80516020610ce183398151915255005b34610180576020366003190112610180576004356001600160a01b03811690819003610180575f526002602052602060405f2054604051908152f35b34610180576020366003190112610180576004356001600160a01b038116808203610180576020916102af915f52600283526108b460405f205491610b22565b90610b08565b34610180576020366003190112610180576004356001600160a01b03811690819003610180575f526003602052602060405f2054604051908152f35b34610180575f366003190112610180576040517f00000000000000000000000000000000000000000000000000000000000000006001600160a01b03168152602090f35b3461018057602036600319011261018057600435610956610b98565b801561040257335f52600260205260405f205415610a695761097733610b22565b335f52600260205261098d8160405f2054610b08565b91818110610a5a5782811115610a54575081905b6109b5826109af8382610b15565b94610b15565b335f52600260205260405f2055335f5260036020524260405f20556109dc82600454610b08565b600455610a0b8230337f0000000000000000000000000000000000000000000000000000000000000000610bd0565b604051928352602083015260408201527f07178c166b5aef4d8409e6bbfd0e7b1ad42c92eb65903a5e5482166f3f4e62f060603392a260015f80516020610ce183398151915255005b906109a1565b63e480bdff60e01b5f5260045ffd5b63718dca8160e11b5f5260045ffd5b34610180576020366003190112610180576004356001600160a01b0381169081810361018057815f52600160205260405f205490825f526002602052610ac260405f205491610b22565b92611d4c8302838104611d4c148415171561016c5760a094612710925f52600360205260405f205493604051958652602086015260408501520460608301526080820152f35b9190820180921161016c57565b9190820391821161016c57565b6001600160a01b03165f81815260026020526040902054908115610b92575f52600360205260405f20548015610b9257610b5c9042610b15565b908115610b92576101f48102908082046101f40361016c5782026101f40291811591830414171561016c5764496cebb800900490565b50505f90565b60025f80516020610ce18339815191525414610bc15760025f80516020610ce183398151915255565b633ee5aeb560e01b5f5260045ffd5b6040516323b872dd60e01b5f9081526001600160a01b039384166004529290931660245260449390935260209060648180865af19060015f5114821615610c41575b6040525f60605215610c215750565b635274afe760e01b5f9081526001600160a01b0391909116600452602490fd5b906001811516610c5957823b15153d15161690610c12565b503d5f823e3d90fd5b5f546001600160a01b03163303610c7557565b63118cdaa760e01b5f523360045260245ffd5b916040519163a9059cbb60e01b5f5260018060a01b031660045260245260205f60448180865af19060015f5114821615610cc8575b60405215610c215750565b906001811516610c5957823b15153d15161690610cbd56fe9b779b17422d0df92223018b32b4d1fa46e071723d6817e2486d003becc55f00a26469706673582212206f93b0662e748f0852beef9d06c62ea63747f0722400db856d1330c6c3f3278d64736f6c634300081a0033","linkReferences":{}},"methodIdentifiers":{"ANNUAL_INTEREST_BPS()":"b5f397e7","BPS_PRECISION()":"e41de313","LTV_BPS()":"fae3706f","SECONDS_PER_YEAR()":"e6a69ab8","addLiquidity(uint256)":"51c6590a","asset()":"38d52e0f","borrow(uint256)":"c5ebeaec","borrowBalance(address)":"4d73e9ba","calculateInterestAccrued(address)":"d6f769d8","collateralBalance(address)":"a1bf2840","depositCollateral(uint256)":"bad4a01f","emergencyWithdraw(uint256)":"5312ea8e","getMaxBorrow(address)":"fd1c317a","getPosition(address)":"16c19739","getTotalDebt(address)":"4d44ac4f","lastInterestAccrualTimestamp(address)":"481bd6af","owner()":"8da5cb5b","removeLiquidity(uint256)":"9c8f9f23","renounceOwnership()":"715018a6","repay(uint256)":"371fd8e6","totalPoolLiquidity()":"e8f00331","transferOwnership(address)":"f2fde38b","withdrawCollateral(uint256)":"6112fe2e"},"id":0}