{"abi":[{"type":"function","name":"logicContract","inputs":[],"outputs":[{"name":"","type":"address","internalType":"address"}],"stateMutability":"view"},{"type":"function","name":"owner","inputs":[],"outputs":[{"name":"","type":"address","internalType":"address"}],"stateMutability":"view"},{"type":"function","name":"planDuration","inputs":[{"name":"","type":"string","internalType":"string"}],"outputs":[{"name":"","type":"uint256","internalType":"uint256"}],"stateMutability":"view"},{"type":"function","name":"planPrices","inputs":[{"name":"","type":"string","internalType":"string"}],"outputs":[{"name":"","type":"uint256","internalType":"uint256"}],"stateMutability":"view"},{"type":"function","name":"subscriptions","inputs":[{"name":"","type":"address","internalType":"address"}],"outputs":[{"name":"startTime","type":"uint256","internalType":"uint256"},{"name":"endTime","type":"uint256","internalType":"uint256"},{"name":"plan","type":"string","internalType":"string"},{"name":"paused","type":"bool","internalType":"bool"}],"stateMutability":"view"}],"bytecode":{"object":"0x608060405234801561000f575f80fd5b5061066b8061001d5f395ff3fe608060405234801561000f575f80fd5b5060043610610055575f3560e01c8063669469d1146100595780638da5cb5b14610089578063cc0e97c9146100a7578063e1c143ac146100c5578063f046395a146100f5575b5f80fd5b610073600480360381019061006e91906103d5565b610128565b6040516100809190610434565b60405180910390f35b610091610155565b60405161009e919061048c565b60405180910390f35b6100af61017a565b6040516100bc919061048c565b60405180910390f35b6100df60048036038101906100da91906103d5565b61019d565b6040516100ec9190610434565b60405180910390f35b61010f600480360381019061010a91906104cf565b6101ca565b60405161011f949392919061058e565b60405180910390f35b6003818051602081018201805184825260208301602085012081835280955050505050505f915090505481565b60015f9054906101000a900473ffffffffffffffffffffffffffffffffffffffff1681565b5f8054906101000a900473ffffffffffffffffffffffffffffffffffffffff1681565b6004818051602081018201805184825260208301602085012081835280955050505050505f915090505481565b6002602052805f5260405f205f91509050805f0154908060010154908060020180546101f590610605565b80601f016020809104026020016040519081016040528092919081815260200182805461022190610605565b801561026c5780601f106102435761010080835404028352916020019161026c565b820191905f5260205f20905b81548152906001019060200180831161024f57829003601f168201915b505050505090806003015f9054906101000a900460ff16905084565b5f604051905090565b5f80fd5b5f80fd5b5f80fd5b5f80fd5b5f601f19601f8301169050919050565b7f4e487b71000000000000000000000000000000000000000000000000000000005f52604160045260245ffd5b6102e7826102a1565b810181811067ffffffffffffffff82111715610306576103056102b1565b5b80604052505050565b5f610318610288565b905061032482826102de565b919050565b5f67ffffffffffffffff821115610343576103426102b1565b5b61034c826102a1565b9050602081019050919050565b828183375f83830152505050565b5f61037961037484610329565b61030f565b9050828152602081018484840111156103955761039461029d565b5b6103a0848285610359565b509392505050565b5f82601f8301126103bc576103bb610299565b5b81356103cc848260208601610367565b91505092915050565b5f602082840312156103ea576103e9610291565b5b5f82013567ffffffffffffffff81111561040757610406610295565b5b610413848285016103a8565b91505092915050565b5f819050919050565b61042e8161041c565b82525050565b5f6020820190506104475f830184610425565b92915050565b5f73ffffffffffffffffffffffffffffffffffffffff82169050919050565b5f6104768261044d565b9050919050565b6104868161046c565b82525050565b5f60208201905061049f5f83018461047d565b92915050565b6104ae8161046c565b81146104b8575f80fd5b50565b5f813590506104c9816104a5565b92915050565b5f602082840312156104e4576104e3610291565b5b5f6104f1848285016104bb565b91505092915050565b5f81519050919050565b5f82825260208201905092915050565b5f5b83811015610531578082015181840152602081019050610516565b5f8484015250505050565b5f610546826104fa565b6105508185610504565b9350610560818560208601610514565b610569816102a1565b840191505092915050565b5f8115159050919050565b61058881610574565b82525050565b5f6080820190506105a15f830187610425565b6105ae6020830186610425565b81810360408301526105c0818561053c565b90506105cf606083018461057f565b95945050505050565b7f4e487b71000000000000000000000000000000000000000000000000000000005f52602260045260245ffd5b5f600282049050600182168061061c57607f821691505b60208210810361062f5761062e6105d8565b5b5091905056fea264697066735822122036277309200686783082b524cfa1f931d451b2174063abe506cd62ad29db916664736f6c63430008140033","linkReferences":{}},"methodIdentifiers":{"logicContract()":"cc0e97c9","owner()":"8da5cb5b","planDuration(string)":"e1c143ac","planPrices(string)":"669469d1","subscriptions(address)":"f046395a"},"id":3}