{"abi":[{"type":"constructor","inputs":[{"name":"_tokenA","type":"address","internalType":"address"},{"name":"_tokenB","type":"address","internalType":"address"}],"stateMutability":"nonpayable"},{"type":"function","name":"FEE_DENOMINATOR","inputs":[],"outputs":[{"name":"","type":"uint256","internalType":"uint256"}],"stateMutability":"view"},{"type":"function","name":"FEE_NUMERATOR","inputs":[],"outputs":[{"name":"","type":"uint256","internalType":"uint256"}],"stateMutability":"view"},{"type":"function","name":"MINIMUM_LIQUIDITY","inputs":[],"outputs":[{"name":"","type":"uint256","internalType":"uint256"}],"stateMutability":"view"},{"type":"function","name":"addLiquidity","inputs":[{"name":"amountA","type":"uint256","internalType":"uint256"},{"name":"amountB","type":"uint256","internalType":"uint256"}],"outputs":[{"name":"lpMinted","type":"uint256","internalType":"uint256"}],"stateMutability":"nonpayable"},{"type":"function","name":"allowance","inputs":[{"name":"owner","type":"address","internalType":"address"},{"name":"spender","type":"address","internalType":"address"}],"outputs":[{"name":"","type":"uint256","internalType":"uint256"}],"stateMutability":"view"},{"type":"function","name":"approve","inputs":[{"name":"spender","type":"address","internalType":"address"},{"name":"value","type":"uint256","internalType":"uint256"}],"outputs":[{"name":"","type":"bool","internalType":"bool"}],"stateMutability":"nonpayable"},{"type":"function","name":"balanceOf","inputs":[{"name":"account","type":"address","internalType":"address"}],"outputs":[{"name":"","type":"uint256","internalType":"uint256"}],"stateMutability":"view"},{"type":"function","name":"decimals","inputs":[],"outputs":[{"name":"","type":"uint8","internalType":"uint8"}],"stateMutability":"view"},{"type":"function","name":"getAmountOut_AtoB","inputs":[{"name":"amountAIn","type":"uint256","internalType":"uint256"}],"outputs":[{"name":"amountBOut","type":"uint256","internalType":"uint256"}],"stateMutability":"view"},{"type":"function","name":"getAmountOut_BtoA","inputs":[{"name":"amountBIn","type":"uint256","internalType":"uint256"}],"outputs":[{"name":"amountAOut","type":"uint256","internalType":"uint256"}],"stateMutability":"view"},{"type":"function","name":"getPoolInfo","inputs":[],"outputs":[{"name":"_reserveA","type":"uint256","internalType":"uint256"},{"name":"_reserveB","type":"uint256","internalType":"uint256"},{"name":"_totalLPSupply","type":"uint256","internalType":"uint256"},{"name":"_k","type":"uint256","internalType":"uint256"},{"name":"_spotPrice","type":"uint256","internalType":"uint256"}],"stateMutability":"view"},{"type":"function","name":"getReserves","inputs":[],"outputs":[{"name":"_reserveA","type":"uint256","internalType":"uint256"},{"name":"_reserveB","type":"uint256","internalType":"uint256"}],"stateMutability":"view"},{"type":"function","name":"getSpotPrice","inputs":[],"outputs":[{"name":"price","type":"uint256","internalType":"uint256"}],"stateMutability":"view"},{"type":"function","name":"name","inputs":[],"outputs":[{"name":"","type":"string","internalType":"string"}],"stateMutability":"view"},{"type":"function","name":"removeLiquidity","inputs":[{"name":"lpAmount","type":"uint256","internalType":"uint256"}],"outputs":[{"name":"amountA","type":"uint256","internalType":"uint256"},{"name":"amountB","type":"uint256","internalType":"uint256"}],"stateMutability":"nonpayable"},{"type":"function","name":"reserveA","inputs":[],"outputs":[{"name":"","type":"uint256","internalType":"uint256"}],"stateMutability":"view"},{"type":"function","name":"reserveB","inputs":[],"outputs":[{"name":"","type":"uint256","internalType":"uint256"}],"stateMutability":"view"},{"type":"function","name":"swapAforB","inputs":[{"name":"amountAIn","type":"uint256","internalType":"uint256"},{"name":"minBOut","type":"uint256","internalType":"uint256"}],"outputs":[{"name":"amountBOut","type":"uint256","internalType":"uint256"}],"stateMutability":"nonpayable"},{"type":"function","name":"swapBforA","inputs":[{"name":"amountBIn","type":"uint256","internalType":"uint256"},{"name":"minAOut","type":"uint256","internalType":"uint256"}],"outputs":[{"name":"amountAOut","type":"uint256","internalType":"uint256"}],"stateMutability":"nonpayable"},{"type":"function","name":"symbol","inputs":[],"outputs":[{"name":"","type":"string","internalType":"string"}],"stateMutability":"view"},{"type":"function","name":"tokenA","inputs":[],"outputs":[{"name":"","type":"address","internalType":"contract IERC20"}],"stateMutability":"view"},{"type":"function","name":"tokenB","inputs":[],"outputs":[{"name":"","type":"address","internalType":"contract IERC20"}],"stateMutability":"view"},{"type":"function","name":"totalSupply","inputs":[],"outputs":[{"name":"","type":"uint256","internalType":"uint256"}],"stateMutability":"view"},{"type":"function","name":"transfer","inputs":[{"name":"to","type":"address","internalType":"address"},{"name":"value","type":"uint256","internalType":"uint256"}],"outputs":[{"name":"","type":"bool","internalType":"bool"}],"stateMutability":"nonpayable"},{"type":"function","name":"transferFrom","inputs":[{"name":"from","type":"address","internalType":"address"},{"name":"to","type":"address","internalType":"address"},{"name":"value","type":"uint256","internalType":"uint256"}],"outputs":[{"name":"","type":"bool","internalType":"bool"}],"stateMutability":"nonpayable"},{"type":"event","name":"Approval","inputs":[{"name":"owner","type":"address","indexed":true,"internalType":"address"},{"name":"spender","type":"address","indexed":true,"internalType":"address"},{"name":"value","type":"uint256","indexed":false,"internalType":"uint256"}],"anonymous":false},{"type":"event","name":"LiquidityAdded","inputs":[{"name":"provider","type":"address","indexed":true,"internalType":"address"},{"name":"amountA","type":"uint256","indexed":false,"internalType":"uint256"},{"name":"amountB","type":"uint256","indexed":false,"internalType":"uint256"},{"name":"lpTokensMinted","type":"uint256","indexed":false,"internalType":"uint256"}],"anonymous":false},{"type":"event","name":"LiquidityRemoved","inputs":[{"name":"provider","type":"address","indexed":true,"internalType":"address"},{"name":"amountA","type":"uint256","indexed":false,"internalType":"uint256"},{"name":"amountB","type":"uint256","indexed":false,"internalType":"uint256"},{"name":"lpTokensBurned","type":"uint256","indexed":false,"internalType":"uint256"}],"anonymous":false},{"type":"event","name":"SwapAforB","inputs":[{"name":"trader","type":"address","indexed":true,"internalType":"address"},{"name":"amountAIn","type":"uint256","indexed":false,"internalType":"uint256"},{"name":"amountBOut","type":"uint256","indexed":false,"internalType":"uint256"}],"anonymous":false},{"type":"event","name":"SwapBforA","inputs":[{"name":"trader","type":"address","indexed":true,"internalType":"address"},{"name":"amountBIn","type":"uint256","indexed":false,"internalType":"uint256"},{"name":"amountAOut","type":"uint256","indexed":false,"internalType":"uint256"}],"anonymous":false},{"type":"event","name":"Transfer","inputs":[{"name":"from","type":"address","indexed":true,"internalType":"address"},{"name":"to","type":"address","indexed":true,"internalType":"address"},{"name":"value","type":"uint256","indexed":false,"internalType":"uint256"}],"anonymous":false},{"type":"error","name":"ERC20InsufficientAllowance","inputs":[{"name":"spender","type":"address","internalType":"address"},{"name":"allowance","type":"uint256","internalType":"uint256"},{"name":"needed","type":"uint256","internalType":"uint256"}]},{"type":"error","name":"ERC20InsufficientBalance","inputs":[{"name":"sender","type":"address","internalType":"address"},{"name":"balance","type":"uint256","internalType":"uint256"},{"name":"needed","type":"uint256","internalType":"uint256"}]},{"type":"error","name":"ERC20InvalidApprover","inputs":[{"name":"approver","type":"address","internalType":"address"}]},{"type":"error","name":"ERC20InvalidReceiver","inputs":[{"name":"receiver","type":"address","internalType":"address"}]},{"type":"error","name":"ERC20InvalidSender","inputs":[{"name":"sender","type":"address","internalType":"address"}]},{"type":"error","name":"ERC20InvalidSpender","inputs":[{"name":"spender","type":"address","internalType":"address"}]},{"type":"error","name":"InsufficientABalance","inputs":[]},{"type":"error","name":"InsufficientBBalance","inputs":[]},{"type":"error","name":"InsufficientLiquidity","inputs":[]},{"type":"error","name":"InsufficientOutputAmount","inputs":[]},{"type":"error","name":"InvalidToken","inputs":[]},{"type":"error","name":"InvariantViolated","inputs":[]},{"type":"error","name":"ReentrancyGuardReentrantCall","inputs":[]},{"type":"error","name":"SafeERC20FailedOperation","inputs":[{"name":"token","type":"address","internalType":"address"}]},{"type":"error","name":"ZeroAmount","inputs":[]},{"type":"error","name":"ZeroLiquidity","inputs":[]}],"bytecode":{"object":"0x60c060405234610466576117736040813803918261001c8161046a565b9384928339810103126104665761003e60206100378361048f565b920161048f565b90610049604061046a565b91601283527126b4b9ba3ca9bbb0b8102628102a37b5b2b760711b6020840152610073604061046a565b600481526304d534c560e41b602082015283519092906001600160401b03811161037757600354600181811c9116801561045c575b602082101461035957601f81116103f9575b50602094601f8211600114610396579481929394955f9261038b575b50508160011b915f199060031b1c1916176003555b82516001600160401b03811161037757600454600181811c9116801561036d575b602082101461035957601f81116102f6575b506020601f821160011461029357819293945f92610288575b50508160011b915f199060031b1c1916176004555b60017f9b779b17422d0df92223018b32b4d1fa46e071723d6817e2486d003becc55f00556001600160a01b03169081151580610276575b1561023d576001600160a01b0316908082146101f85760805260a0526040516112cf90816104a482396080518181816102d7015281816105900152818161073f01528181610c450152610d2c015260a0518181816102ac015281816105bc0152818161076a01528181610a2a0152610c700152f35b60405162461bcd60e51b815260206004820152601560248201527f414d4d3a206964656e746963616c20746f6b656e7300000000000000000000006044820152606490fd5b60405162461bcd60e51b8152602060048201526011602482015270414d4d3a207a65726f206164647265737360781b6044820152606490fd5b506001600160a01b0381161515610183565b015190505f80610137565b601f1982169060045f52805f20915f5b8181106102de575095836001959697106102c6575b505050811b0160045561014c565b01515f1960f88460031b161c191690555f80806102b8565b9192602060018192868b0151815501940192016102a3565b60045f527f8a35acfbc15ff81a39ae7d344fd709f28e8600b4aa8c65c6b64bfe7fe36bd19b601f830160051c8101916020841061034f575b601f0160051c01905b818110610344575061011e565b5f8155600101610337565b909150819061032e565b634e487b7160e01b5f52602260045260245ffd5b90607f169061010c565b634e487b7160e01b5f52604160045260245ffd5b015190505f806100d6565b601f1982169560035f52805f20915f5b8881106103e1575083600195969798106103c9575b505050811b016003556100eb565b01515f1960f88460031b161c191690555f80806103bb565b919260206001819286850151815501940192016103a6565b60035f527fc2575a0e9e593c00f959f8c92f12db2869c3395a3b0502d05e2516446f71f85b601f830160051c81019160208410610452575b601f0160051c01905b81811061044757506100ba565b5f815560010161043a565b9091508190610431565b90607f16906100a8565b5f80fd5b6040519190601f01601f191682016001600160401b0381118382101761037757604052565b51906001600160a01b03821682036104665756fe6080806040526004361015610012575f80fd5b5f3560e01c90816306fdde0314610e01575080630902f1ac14610ddd578063095ea7b314610d5b5780630fc63d1014610d17578063140e624714610ba957806318160ddd14610b8c57806319e36f3b14610b6f57806323b872dd14610a90578063313ce56714610a7557806341cd47bf14610a595780635f64b55b14610a1557806360246c881461099657806370a082311461095f57806395d89b41146108445780639c8f9f23146106575780639cd441da14610405578063a9059cbb146103d4578063ba9a7a56146101fe578063c915cc2414610203578063d73792a9146101fe578063da892df5146101e0578063dc5fa6c5146101c3578063dc76fabc146101a9578063dd62ed3e146101595763f69ea0281461012f575f80fd5b3461015557602036600319011261015557602061014d600435611054565b604051908152f35b5f80fd5b3461015557604036600319011261015557610172610efa565b61017a610f10565b6001600160a01b039182165f908152600160209081526040808320949093168252928352819020549051908152f35b34610155575f36600319011261015557602061014d611018565b34610155575f366003190112610155576020600554604051908152f35b3461015557602036600319011261015557602061014d600435610fa3565b610f3c565b346101555761021136610f26565b6102196110c0565b81156103c557600554801580156103bb575b610389576103e583028381046103e5036103a7576102498282610f58565b90600654916103e883028381046103e814841517156103a7576102759261026f91610f6b565b90610f78565b9283156103985783106103985781831015610389576102a191610299858593610f6b565b600655610f96565b6005556102d08230337f00000000000000000000000000000000000000000000000000000000000000006110f8565b6102fb81337f000000000000000000000000000000000000000000000000000000000000000061118a565b6005546103286006546103228561031c866103168588610f58565b96610f6b565b92610f96565b90610f58565b1161037a5760209160405190815281838201527f18d89124d3f604d784e6ec54f7e2c6a8487fb2bff658ff580c4abbcb5088ad9b60403392a260015f8051602061127a83398151915255604051908152f35b631228c0d560e11b5f5260045ffd5b63bb55fd2760e01b5f5260045ffd5b6342301c2360e01b5f5260045ffd5b634e487b7160e01b5f52601160045260245ffd5b506006541561022b565b631f2a200560e01b5f5260045ffd5b34610155576040366003190112610155576103fa6103f0610efa565b60243590336111e2565b602060405160018152f35b346101555761041336610f26565b9061041c6110c0565b8015801561064f575b6103c557600254806104ba5761043b8383610f58565b5f60038211156104ac5750808060011c600181018091116103a757905b82821061048d5750505b6103e8811115610389576103e71981019081116103a7575063ec442f0560e01b5f525f60045260245ffd5b9091506104a38261049e8184610f78565b610f6b565b60011c90610458565b901561046257506001610462565b6104e66104dd6104d66104cd8486610f58565b60055490610f78565b9285610f58565b60065490610f78565b8082101561064857505b9081156106395761050381600554610f6b565b60055561051283600654610f6b565b6006553315610626577f64b83944e79c3ce8d4c297411de637c3e102d064677aac0c163976ebdcd6f50e8260209461054c82600254610f6b565b60025533806106115782600254036002555b5f7fddf252ad1be2c89b69c2b068fc378daa952ba7f163c4a11628f55a4df523b3ef88604051868152a36105b48430337f00000000000000000000000000000000000000000000000000000000000000006110f8565b6105e08130337f00000000000000000000000000000000000000000000000000000000000000006110f8565b6040805194855260208501919091528301523391606090a260015f8051602061127a83398151915255604051908152f35b805f525f875260405f2083815401905561055e565b63ec442f0560e01b5f525f60045260245ffd5b630200e8a960e31b5f5260045ffd5b90506104f0565b508115610425565b34610155576020366003190112610155576004356106736110c0565b80156103c5576002546005546106928261068d8386610f58565b610f78565b916106a46006549161068d8387610f58565b918315801561083c575b6106395780841161082d5781831161081e576106d7916106cf858593610f96565b600555610f96565b600655331561080b57335f525f60205260405f20548381106107f0579280604094335f525f60205203845f205580600254036002555f84518281527fddf252ad1be2c89b69c2b068fc378daa952ba7f163c4a11628f55a4df523b3ef60203392a361076383337f000000000000000000000000000000000000000000000000000000000000000061118a565b61078e82337f000000000000000000000000000000000000000000000000000000000000000061118a565b7f1dc8bb69df2b8e91fbdcbfcf93d951b3f0000f085a95fe3f7946d6161439245d8451806107d033948688846040919493926060820195825260208201520152565b0390a260015f8051602061127a8339815191525582519182526020820152f35b839063391434e360e21b5f523360045260245260445260645ffd5b634b637e8f60e11b5f525f60045260245ffd5b63583ded7960e11b5f5260045ffd5b630367cacb60e41b5f5260045ffd5b5082156106ae565b34610155575f366003190112610155576040515f6004548060011c90600181168015610955575b6020831081146109415782855290811561092557506001146108d0575b50819003601f01601f191681019067ffffffffffffffff8211818310176108bc576108b882918260405282610ed0565b0390f35b634e487b7160e01b5f52604160045260245ffd5b905060045f527f8a35acfbc15ff81a39ae7d344fd709f28e8600b4aa8c65c6b64bfe7fe36bd19b5f905b82821061090f57506020915082010182610888565b60018160209254838588010152019101906108fa565b90506020925060ff191682840152151560051b82010182610888565b634e487b7160e01b5f52602260045260245ffd5b91607f169161086b565b34610155576020366003190112610155576001600160a01b03610980610efa565b165f525f602052602060405f2054604051908152f35b34610155575f3660031901126101555760055460065490600254916109bb8183610f58565b826109e25760a0935f925b6040519485526020850152604084015260608301526080820152f35b670de0b6b3a7640000820293828504670de0b6b3a764000014831517156103a757610a0f8460a096610f78565b926109c6565b34610155575f366003190112610155576040517f00000000000000000000000000000000000000000000000000000000000000006001600160a01b03168152602090f35b34610155575f3660031901126101555760206040516103e58152f35b34610155575f36600319011261015557602060405160128152f35b3461015557606036600319011261015557610aa9610efa565b610ab1610f10565b6001600160a01b0382165f818152600160209081526040808320338452909152902054909260443592915f198110610aef575b506103fa93506111e2565b838110610b54578415610b41573315610b2e576103fa945f52600160205260405f2060018060a01b0333165f526020528360405f209103905584610ae4565b634a1406b160e11b5f525f60045260245ffd5b63e602df0560e01b5f525f60045260245ffd5b8390637dc7a0d960e11b5f523360045260245260445260645ffd5b34610155575f366003190112610155576020600654604051908152f35b34610155575f366003190112610155576020600254604051908152f35b3461015557610bb736610f26565b610bbf6110c0565b81156103c557600554801590818015610d0d575b610389576103e584028481046103e5036103a75760065492610bf58483610f58565b906103e88402908482046103e81417156103a757610c169261026f91610f6b565b928315610398578310610398578183101561038957610c3a916106cf858593610f6b565b600655610c698230337f00000000000000000000000000000000000000000000000000000000000000006110f8565b610c9481337f000000000000000000000000000000000000000000000000000000000000000061118a565b600554610cbb60065461032284610cb587610caf8588610f58565b96610f96565b92610f6b565b1161037a5760209160405190815281838201527fa73f8333ff34c4a2ca3172ce0c0ae8b5aa54bc107b961b36fb0cc6818c4e83e060403392a260015f8051602061127a83398151915255604051908152f35b5060065415610bd3565b34610155575f366003190112610155576040517f00000000000000000000000000000000000000000000000000000000000000006001600160a01b03168152602090f35b3461015557604036600319011261015557610d74610efa565b602435903315610b41576001600160a01b0316908115610b2e57335f52600160205260405f20825f526020528060405f20556040519081527f8c5be1e5ebec7d5bd14f71427d1e84f3dd0314c0f7b2291e5b200ac8c7c3b92560203392a3602060405160018152f35b34610155575f36600319011261015557604060055460065482519182526020820152f35b34610155575f366003190112610155575f6003548060011c90600181168015610ec6575b602083108114610941578285529081156109255750600114610e715750819003601f01601f191681019067ffffffffffffffff8211818310176108bc576108b882918260405282610ed0565b905060035f527fc2575a0e9e593c00f959f8c92f12db2869c3395a3b0502d05e2516446f71f85b5f905b828210610eb057506020915082010182610888565b6001816020925483858801015201910190610e9b565b91607f1691610e25565b602060409281835280519182918282860152018484015e5f828201840152601f01601f1916010190565b600435906001600160a01b038216820361015557565b602435906001600160a01b038216820361015557565b6040906003190112610155576004359060243590565b34610155575f3660031901126101555760206040516103e88152f35b818102929181159184041417156103a757565b919082018092116103a757565b8115610f82570490565b634e487b7160e01b5f52601260045260245ffd5b919082039182116103a757565b801580801561100e575b8015611004575b610ffe576103e582029182046103e51417156103a757610fd660055482610f58565b6006546103e88102908082046103e814901517156103a757610ffb9261026f91610f6b565b90565b50505f90565b5060065415610fb4565b5060055415610fad565b600554801561104f5760065490670de0b6b3a7640000820291808304670de0b6b3a764000014901517156103a757610ffb91610f78565b505f90565b80158080156110b6575b80156110ac575b610ffe576103e582029182046103e51417156103a75761108760065482610f58565b6005546103e88102908082046103e814901517156103a757610ffb9261026f91610f6b565b5060065415611065565b506005541561105e565b60025f8051602061127a83398151915254146110e95760025f8051602061127a83398151915255565b633ee5aeb560e01b5f5260045ffd5b6040516323b872dd60e01b5f9081526001600160a01b039384166004529290931660245260449390935260209060648180865af19060015f5114821615611169575b6040525f606052156111495750565b635274afe760e01b5f9081526001600160a01b0391909116600452602490fd5b90600181151661118157823b15153d1516169061113a565b503d5f823e3d90fd5b916040519163a9059cbb60e01b5f5260018060a01b031660045260245260205f60448180865af19060015f51148216156111ca575b604052156111495750565b90600181151661118157823b15153d151616906111bf565b6001600160a01b031690811561080b576001600160a01b031691821561062657815f525f60205260405f205481811061126057817fddf252ad1be2c89b69c2b068fc378daa952ba7f163c4a11628f55a4df523b3ef92602092855f525f84520360405f2055845f525f825260405f20818154019055604051908152a3565b8263391434e360e21b5f5260045260245260445260645ffdfe9b779b17422d0df92223018b32b4d1fa46e071723d6817e2486d003becc55f00a26469706673582212208cc9cbba0d9ba09f3149f27d1b2f584a8945e3e57cade5c744ef979d4747de2664736f6c634300081a0033","linkReferences":{}},"methodIdentifiers":{"FEE_DENOMINATOR()":"d73792a9","FEE_NUMERATOR()":"41cd47bf","MINIMUM_LIQUIDITY()":"ba9a7a56","addLiquidity(uint256,uint256)":"9cd441da","allowance(address,address)":"dd62ed3e","approve(address,uint256)":"095ea7b3","balanceOf(address)":"70a08231","decimals()":"313ce567","getAmountOut_AtoB(uint256)":"f69ea028","getAmountOut_BtoA(uint256)":"da892df5","getPoolInfo()":"60246c88","getReserves()":"0902f1ac","getSpotPrice()":"dc76fabc","name()":"06fdde03","removeLiquidity(uint256)":"9c8f9f23","reserveA()":"dc5fa6c5","reserveB()":"19e36f3b","swapAforB(uint256,uint256)":"140e6247","swapBforA(uint256,uint256)":"c915cc24","symbol()":"95d89b41","tokenA()":"0fc63d10","tokenB()":"5f64b55b","totalSupply()":"18160ddd","transfer(address,uint256)":"a9059cbb","transferFrom(address,address,uint256)":"23b872dd"},"id":0}